:100000000C94CD0B0C94F50B0C94F50B0C94F50B98
:100010000C94F50B0C94F50B0C94F50B0C94F50B60
:100020000C94F50B0C94F50B0C94F50B0C94F50B50
:100030000C94F50B0C94F50B0C94F50B0C94F50B40
:100040000C949F120C94F50B0C9459110C943311D1
:100050000C94F50B0C94F50B0C94F50B0C94F50B20
:100060000C94E9120C94F50B00000000240027000A
:100070002A0000000000250028002B0004040404CE
:100080000404040402020202020203030303030342
:10009000010204081020408001020408102001021F
:1000A00004081020000000080002010000030407FB
:1000B0000000000000000000D092D0BBD0B0D0B64D
:1000C000D0BDD0BED181D182D18C00D094D0B0D05F
:1000D000B2D0BBD0B5D0BDD0B8D0B500D0A2D0B5CD
:1000E000D0BCD0BFD0B5D180D0B0D182D183D180A7
:1000F000D0B0000C1020B000000000000000000094
:1001000000000000000000000000000000000000EF
:1001100000000000FEFE00000000000000000000E3
:1001200067670000000000000000160E0000160EB9
:1001300000000000000000000000000000000000BF
:100140000060E0F87E6EE0F87E6E0000767E1F07AD
:10015000767E1F070600000078FCCE86FFFF869E95
:100160001C18000018387961FFFF61733F1E000002
:100170003C7E667EBCE0781E060000000060781EB3
:10018000073D7E667E3C000000008080FCFEE6E6C7
:100190007E3C00001E3F736161717F3F7C6C0000FC
:1001A00000000000160E000000000000000000002B
:1001B0000000000000000000000000F0FC0E030042
:1001C000000000000000000F3F70C00000000000B1
:1001D000000000030EFCF00000000000000000C062
:1001E000703F0F0000000000000008783C3C7808D9
:1001F00000000000000000000000000000000000FF
:1002000000808080F0F0808080000000000101010B
:100210000F0F0101010000000000000000000000BD
:100220000000000000000000B070000000000000AE
:1002300000808080808080808000000000010101BB
:1002400001010101010000000000000000000000A9
:1002500000000000000000006060000000000000DE
:100260000000000080E0781E060000000060781E9C
:100270000701000000000000F8FC0E060606060E4E
:10028000FCF800001F3F7060606060703F1F00005E
:10029000000030381CFEFE060000000000000000D8
:1002A000607F7F6000000000181C1E06060686CED8
:1002B000FC780000787C7E66676363617070000084
:1002C0000E0E0606C6E6F6FE9E0E00001838786092
:1002D000606060713F1F00000080C0E070381CFE4D
:1002E000FE060000070707060606667F7F66000019
:1002F000FEFEE666666666E6CE8E0000183878601A
:10030000606060703F1F0000F8FCCEC6C6C6C6DE47
:100310009C1800001F3F7160606060713F1F00000B
:100320001E1E0606060686E67E1E00000000006011
:10033000781E07010000000078FCCE86868686CEF7
:10034000FC7800001E3F7361616161733F1E000015
:10035000F8FC8E060606068EFCF8000018397B6352
:10036000636363733F1F0000000000003030000033
:1003700000000000000000000C0C00000000000065
:10038000000000003030000000000000000000000D
:100390002C1C0000000000000080C0C0E060703035
:1003A000300000000001030307060E0C0C000000E3
:1003B000006060606060606060000000000606062B
:1003C00006060606060000000030307060E0C0C07F
:1003D00080000000000C0C0E060703030100000063
:1003E000181C1E06068686CEFC7800000000006EF3
:1003F0006F03010100000000F8FC0EE6F636F6F689
:100400000EFCF8001F3F70676F6C6F676C2F070062
:1004100000F0FC1E060606FEFE060000607F7F63FD
:100420000303637F7F60000006FEFE86868686CE1D
:10043000FC780000607F7F61616161733F1E000096
:10044000F8FC0E060606061E1C1800001F3F706012
:10045000606060783818000006FEFE060606060E8C
:10046000FCF80000607F7F60606060703F1F0000EC
:1004700006FEFE868686C6C60E0E0000607F7F6181
:10048000616163637070000006FEFE8686C6C60664
:100490000E0E0000607F7F6101030300000000007A
:1004A000F8FC0E060606061E1C1800001F3F7060B2
:1004B000606363733F1F000006FEFE86808086FE39
:1004C000FE060000607F7F610101617F7F600000A8
:1004D00000000006FEFE06000000000000000060B4
:1004E0007F7F60000000000000000000000006FEAA
:1004F000FE060000001838786060703F1F000000A2
:1005000006FEFE8680C0F67E1E060000607F7F61CC
:1005100001036F7E7860000006FEFE06000000000A
:1005200000000000607F7F606060606070700000AD
:1005300006FEFE78E0E078FEFE060000607F7F6049
:100540000101607F7F60000006FEFE78E08006FE0D
:10055000FE060000607F7F6001071E7F7F60000055
:10056000F8FC0E060606060EFCF800001F3F706041
:10057000606060703F1F000006FEFE060606068EE5
:10058000FCF80000607F7F630303030301000000A9
:10059000F8FC0E060606060EFCF800001F3F706011
:1005A000606C7C387F6F000006FEFE060606068E35
:1005B000FCF80000607F7F6303036F7F79600000B9
:1005C00078FCCE868686869E1C18000018387961D5
:1005D000616161733F1E00000E0E0606FEFE0606F8
:1005E0000E0E0000000000607F7F60000000000031
:1005F00006FEFE06000006FEFE060000001F3F701D
:100600006060703F1F00000006FEFE06000006FE50
:10061000FE06000000030F3E78783E0F0300000046
:1006200006FEFE06808006FEFE060000001F7F78A4
:100630001F1F787F1F000000061E7EF6C0C0F67EDA
:100640001E06000060787E6F03036F7E78600000F6
:10065000067EFEC60000C6FE7E06000000000163A6
:100660007F7F6301000000000E0E060686C6E67658
:100670003E1E0000787C6E676361606070700000F1
:10068000000000FFFF03030300000000000000FF64
:10069000FFC0C0C00000000000061E78E08000001F
:1006A000000000000000000001071E78600000004C
:1006B0000000030303FFFF00000000000000C0C0B3
:1006C000C0FFFF00000000000000303C1E1E3C3058
:1006D000000000000000000000000000000000001A
:1006E000000000000000000000000000606060608A
:1006F0006060606060600000000000000E0E00009E
:1007000000000000000000000000000000000000E9
:10071000C0E07030303070E0C00000001C3E7763F5
:100720006363337F7F60000006FEFE66303030700A
:10073000E0C00000607F7F30606060703F1F00009D
:10074000C0E07030303030F0E0C000001F3F70601B
:100750006060607838180000C0E07030303066FEAD
:10076000FE0600001F3F70606060307F7F60000009
:10077000C0E0703030303070E0C000001F3F76665F
:100780006666667637170000000060FCFE660600AD
:10079000000000000000007F7F000000000000005B
:1007A000C0E07030303060F0F03000003377EECCD5
:1007B000CCCCEE7F3F00000006FEFE66303070E0DD
:1007C000C0000000607F7F600000607F7F600000ED
:1007D00000000030F6F6300000000000000000606D
:1007E0007F7F6000000000000000000030F6F6305F
:1007F0000000000000000060607F3F00000000007B
:1008000006FEFE0680F0F07030300000607F7F63EF
:10081000070F7C787060000000000006FEFE0600F6
:1008200000000000000000607F7F600000000030DA
:10083000F0E03030F0E03030F0E000607F7F6000CA
:100840007F7F00607F7F600030F0F060303070E0CC
:10085000C0000000607F7F600000607F7F6000005C
:10086000C0E0703030303070E0C000001F3F70607A
:10087000606060703F1F000030F0F060303030701A
:10088000E0C00000C0FFFFD8303030381F0F00003C
:10089000C0E07030303060F0F03000000F1F3830B2
:1008A0003030D8FFFFC000000030F0F06030307012
:1008B0006000000000607F7F60000000000000001A
:1008C000E0F030303030307070600000193B7B63F6
:1008D000636363773E1C0000000030FEFE300000C2
:1008E000000000000000003F7F606000000000008A
:1008F00030F0F030000030F0F0300000001F3F70AA
:100900006060307F7F60000030F0F030000030F039
:10091000F03000000000071F78781F07000000304B
:10092000F0F0300000000030F0F03000031F7C7069
:100930001E1E707C1F030000003070F08080F0707D
:10094000300000000060707D0F0F7D7060000000BF
:100950000030F0C00000C0F03000000000606073A4
:100960003F0F0300000000000070703030B0F0F066
:100970007000000000787C6E67636170700000009A
:100980000080C0FC7E070303000000000001033F5D
:100990007EE0C0C00000000000000000FEFE00007D
:1009A00000000000000000007F7F00000000000049
:1009B00000000303077EFCC0800000000000C0C0F0
:1009C000E07E3F030100000080C0C0C0C080000086
:1009D0008080000001010000010303030301000007
:1009E0000000000000000000000000000000000007
:1009F000000000000000000000F0FC1E060606FEDD
:100A0000FE060000607F7F630303637F7F6000005A
:100A100006FEFEC6C6C6C6C68E0E0000607F7F609C
:100A2000606060713F1F000006FEFE86868686CEEF
:100A3000FC780000607F7F61616161733F1E000090
:100A400006FEFE06060606060E0E0000607F7F60AC
:100A5000000000000000000000F0FC1E060606FE7C
:100A6000FE060000787F1F181818181F7F780000F6
:100A700006FEFE868686C6C60E0E0000607F7F617B
:100A80006161636370700000067EFEC0FEFEC0FE02
:100A90007E060000607E7F037F7F037F7E60000014
:100AA000181C1E0606C6C6EEFC3800001838786012
:100AB000606060713F1F000006FEFE0680E078FE69
:100AC000FE060000607F7F1E0701607F7F600000E0
:100AD00006FEFE0183E379FEFE060000607F7F1EB6
:100AE0000701607F7F60000006FEFE8680C0F67E04
:100AF0001E060000607F7F6101036F7E786000004A
:100B000000F0FC1E060606FEFE060000607F3F00A9
:100B10000000607F7F60000006FEFE78E0E078FE67
:100B2000FE060000607F7F600101607F7F60000043
:100B300006FEFE86808086FEFE060000607F7F61E6
:100B40000101617F7F600000F8FC0E060606060EBC
:100B5000FCF800001F3F7060606060703F1F000085
:100B600006FEFE06060606FEFE060000607F7F60AB
:100B70000000607F7F60000006FEFE060606068E0F
:100B8000FCF80000607F7F630303030301000000A3
:100B9000F8FC0E060606061E1C1800001F3F7060BB
:100BA00060606078381800000E0E0606FEFE06062D
:100BB0000E0E0000000000607F7F6000000000005B
:100BC000061E7EF6C0C0F67E1E0600006060707DC8
:100BD0001F07010000000000F0F81C0CFEFE0C1CBA
:100BE000F8F000000F1F38307F7F30381F0F0000F3
:100BF000061E7EF6C0C0F67E1E06000060787E6F80
:100C000003036F7E7860000006FEFE06000006FE0D
:100C1000FE060000607F7F606060607F7FE0E00034
:100C200006FEFE86000006FEFE0600000000010330
:100C30000303637F7F60000006FEFE06F0F006FE01
:100C4000FE060000607F7F607F7F607F7F60000026
:100C500006FEFE06F0F006FEFE060000607F7F60E6
:100C60007F7F607F7FE0E00606FEFE8080808080E0
:100C700000000000607F7F61616161733F1E0000C2
:100C800006FEFE86800006FEFE060000607F7F6195
:100C90007F1F607F7F60000006FEFE868080808070
:100CA00000000000607F7F61616161733F1E000092
:100CB000181C1E060686868EFCF800001838786020
:100CC000606161713F1F000006FEFE86F8FC0E06A3
:100CD0000EFCF800607F7F611F3F7060703F1F0057
:100CE000F8FC8E06060606FEFE06000060797F6FA1
:100CF0000303637F7F600000C0E07030303070E03D
:100D0000C00000001C3E77636363337F7F60000098
:100D100030F0F0303030303070700000607F7F6332
:100D2000636363773E1C000030F0F030303030F009
:100D3000E0C00000607F7F63636363773F1C000057
:100D400030F0F0303030303070700000607F7F6005
:100D5000000000000000000000C0E070303030F003
:100D6000F0300000F0FF3F303030303FFFF0000047
:100D7000C0E0703030303070E0C000001F3F766659
:100D800066666676371700003070F080F0F080F00D
:100D90007030000060707D0F7F7F0F7D70600000FD
:100DA000C0E0F030303030F0E0C00000183878603B
:100DB000636363773F1C000030F0F0300000B0F058
:100DC000F0300000607F7F7C0E07637F7F60000053
:100DD00030F0F3370606B7F3F0300000607F7F7C19
:100DE0000E07637F7F60000030F0F0300080F0F08D
:100DF00070300000607F7F63070F7D7870600000B7
:100E000000C0E070303030F0F0300000607F3F0014
:100E10000000607F7F60000030F0F0C08080C0F094
:100E2000F0300000607F7F610707617F7F60000016
:100E300030F0F030000030F0F0300000607F7F6371
:100E40000303637F7F600000C0E07030303030709B
:100E5000E0C000001F3F7060606060703F1F0000D6
:100E600030F0F030303030F0F0300000607F7F60E4
:100E70000000607F7F60000030F0F0603030307044
:100E8000E0C00000C0FFFFD8303030381F0F000036
:100E9000C0E07030303030F0E0C000001F3F7060C4
:100EA000606060783818000070703030F0F03030DA
:100EB00070700000000000607F7F60000000000094
:100EC0000030F0F00000F0F03000000000606073CF
:100ED0003F0F030000000000C0E07030F8F83070F1
:100EE000E0C000001F3F7060FFFF60703F1F000008
:100EF000003070F08080F070300000000060707D85
:100F00000F0F7D706000000030F0F030000030F016
:100F1000F0300000607F7F606060607F7FE0E00015
:100F200030F0F030000030F0F03000000003070631
:100F30000606667F7F60000030F0F030808030F081
:100F4000F0300000607F7F607F7F607F7F60000007
:100F500030F0F030808030F0F0300000607F7F6053
:100F60007F7F607F7FE0E03030F0F0000000000025
:100F700000000000607F7F63636363773E1C003086
:100F8000F0F0300000000030F0F030607F7F6363ED
:100F9000773E1C607F7F600030F0F0300000000082
:100FA00000000000607F7F63636363773E1C000086
:100FB000C0E0F03030303070E0C0000018387860A9
:100FC000606363733F1F0030F0F030C0E07030307A
:100FD00070E0C0607F7F631F3F706060703F1F00E4
:100FE000C0E07030303030F0F030000061737F6E60
:100FF0000606667F7F6000000CFCFF8F8C8CCFCFD5
:101000001C1C0000607F7F61616163637070000081
:10101000C0E0763630303676E0C000001F3F76669E
:1010200066666676371700000000000000000000CA
:1010300000000000000000000000000000000000B0
:1010400000000000000000000000000000000000A0
:101050000000000000000000000000000000000090
:101060000000000000000000000000000000000080
:101070000000000000000000000000000000000070
:101080000000000000000000000000000000000060
:101090000000000000000000000000000000000050
:1010A0000000000000000000000000000000000040
:1010B00000000000000000003C7E66667E3C0000F0
:1010C0000000000000000000000000000000000020
:1010D0000000000000000000000000000000000010
:1010E0000000000000000000000000000000000000
:1010F00000000000000000000000000000000000F0
:1011000000000000000000000000000000000000DF
:1011100000000000000000000000000000000000CF
:1011200000000000000000000000000000000000BF
:1011300000000000000000000000000000000000AF
:10114000000000000000000000000000000000009F
:10115000000000000000000000000000000000008F
:10116000000000000000000000000000000000007F
:101170000000000000000001AF3018282D0D000015
:10118000000000000000000000000000000000005F
:10119000000000000000000000000000000000004F
:1011A000000000000000000000000000000000003F
:1011B000000000000000000000000000000000002F
:1011C000000000000000000000000000000000001F
:1011D000000000000000000000000000000000000F
:1011E00000000000000000000000000000000000FF
:1011F00000000000000000000000000000000000EF
:1012000000000000000000000000000000000000DE
:1012100000000000000000000000000000000000CE
:1012200000000000000000000000000000000000BE
:1012300000000000000000000000000000000000AE
:1012400000000000000070F8FCFEFEFCF8700000DA
:10125000000000000000000000000000000000008E
:101260000103030100000000000000000000000076
:101270000000000000000080C0C0C080000000002E
:101280000000000000000000000000000000070F48
:101290001F3F3F1F0F06000000000000000000007D
:1012A000000000000000000000000000000000003E
:1012B0000000000000000000000000000000387C7A
:1012C000FEFFFFFE7C380000000000000000000070
:1012D000000000000000000000010100000000000C
:1012E00000000000000000000000000080C0E0F0EE
:1012F000F8F8F8F0F0E0C080000000000000000006
:10130000C0F0FCFE3F07010303070F1F3FFFFFFF75
:10131000FFFCF000000000FCFFFFFFFFC00000002A
:1013200000000000000007FFFFFFFF3F000000007B
:101330000F3FFFFFFFFFFCF8F0E0E0C080E0F8FFA8
:101340003F0F030000000000000000010307070F2B
:101350001F1F1F0F07030100000000000000000016
:10136000000000000080C0E0F0F0E0C000000000DD
:10137000000000000000000000000002070707FF57
:10138000FFFFFFFFFF000000000000000000000062
:1013900000000000000000FFFFFFFFFFFF00000053
:1013A000000000000000000000000000000000FF3E
:1013B000FFFFFFFFFF0080808000000000000000B2
:1013C00000000000000007070F1F3F3F1F0F07032B
:1013D00001000000000000000000000080C0E0F0FC
:1013E000F8F8F0F0E0C0808000000000000000008D
:1013F000081C3E7F7F3F1F0F0703030183FFFFFF92
:10140000FFFEFE0000000000000000000000008061
:10141000C0E0F8FCFFFF7F3F1F0701000000000055
:101420000080E0F0F8FEDFEFEFE7E3E1E1E0E0C0AD
:10143000C0C0C080000000001E1F0F0F0F0707076D
:10144000070707070F0F1F1F0F070300000000000B
:10145000000080C0E0E0F0F8F8F8F0F0E0E0C0C094
:1014600080800000000000000003070F1F0F07032B
:101470000181C0F0FFFFFFFFFF3F00000000000000
:10148000000000000E0E0E0F0F0F1F3FFFFFFFF9B1
:10149000F0E0C000000000183C7EFFFFFEFCF8F00A
:1014A000E0C08000C1FFFFFFFFFF3F000000000021
:1014B0000000000103070F0F0F0F070707030301C9
:1014C000000000000000000000000000000000001C
:1014D00080E0F8F8F8F0E0000000000000000000F4
:1014E000000000C0E0F83C1F0703FFFFFFFFFF0004
:1014F0000000000000000000F8FCFFE7E3E0E0E08F
:10150000E0E0FFFFFFFFFFE0E0E0E0E000000000C0
:10151000030303030303030303C3FFFFFFFFFFC32F
:1015200083C3C303000000000000000000000000AF
:10153000010303070F0F0F07030101000000000064
:1015400000000000F8F8F8F8F8F8F8F8F8F8F8F8FB
:101550007810000000000000000080FFFF070181FC
:10156000C1C1E1F1E1E1C181000000000000000023
:1015700000203F3F1F0E070707070F1F3FFFFFFF1A
:10158000FFFEF8000000000060F0FCFCFCF8F0F04A
:10159000E0C0C08080E0FFFF7F3F07000000000048
:1015A000000001010307070F0F0F0F0707030101D9
:1015B0000000000000000000000000000080C0E00B
:1015C000F0F8F8F8F0F0E0C0C08000000000000083
:1015D00000E0F8FCFE7F0F0101038387CFCFDF8F90
:1015E0000701000000000000FFFFFFFFFFB81C1E06
:1015F0000E070F1F3F7FFFFFFFFEF80000000000F7
:101600000F3FFFFFFFFFFCF8F0E0C0C080E0FFFFEE
:101610003F1F070000000000000000010307070F44
:101620000F0F0F070303010000000000000000007F
:101630000000C0F0F8F8F8F8F8F8F8F8F8F8F8F85A
:10164000F8F8783800000000181E1F070303010196
:101650000181C1F1F9FD3F0F03010000000000000E
:10166000000000000080F0FCFEFFFF3F07000000CC
:101670000000000000000000000000E0FEFFFFFF8F
:10168000FFFF030000000000000000000000000059
:101690000000000F0F0F0707070300000000000005
:1016A000000000000000000000000080E0F0F8F8FA
:1016B000F8F8F8F8F8F8F0E0C0800000000000004A
:1016C000F0FCFFFFE7C1C18181818183C3FFFF7F00
:1016D0003F0F00000000000003CFFFFF7F3F3F3FB0
:1016E0003F3F3F3F7F7FFFFFFEF8E000000000002C
:1016F000FFFFFFFFF8F0E0E0C0C0C0C0C0E0E0FBCB
:101700007F1F070000000000000307070F0F0F0FE7
:101710001F1F0F0F07030100000000000000000062
:1017200000000080C0E0F0F0F8F8F8F0E0E0C080E1
:1017300000000000000000C0F8FEFFFF870101016B
:1017400003070F1F7FFFFFFFFEFCE0000000000308
:101750001F7FFFFFFFFEFCF8F070383C1ECFFFFF3D
:10176000FFFF3F000000000000E0F0F9FDFBF1F09A
:10177000E0C0C0E0FCFF7F1F0F0100000000000080
:10178000000001030307070F0F0F0703010000000C
:1017900000000000000000000D2311241FBECFEF49
:1017A000D8E0DEBFCDBF23E0A8EBB1E001C01D92C1
:1017B000A53BB207E1F711E0A0E0B1E0E4E3F3E517
:1017C00002C005900D92A83BB107D9F71BE0CDEC04
:1017D000DBE004C02197FE010E948E27CC3CD1079C
:1017E000C9F70E94651B0C9498290C940000FC0119
:1017F000538D448D252F30E0842F90E0821B930B76
:10180000541710F0CF96089501970895FC01918D1B
:10181000828D981761F0828DDF01A80FB11D5D9652
:101820008C91928D9F5F9F73928F90E008958FEFC0
:101830009FEF0895FC01918D828D981731F0828D74
:10184000E80FF11D858D90E008958FEF9FEF0895CB
:10185000FC01918D228D892F90E0805C9F4F821B2F
:1018600091098F739927089589E792E00E94280CC7
:1018700021E0892B09F420E0822F0895FC01848D5A
:10188000DF01A80FB11DA35ABF4F2C91848D90E0AA
:1018900001968F739927848FA689B7892C93A08985
:1018A000B1898C91837080648C93938D848D98130F
:1018B00006C00288F389E02D80818F7D80830895A2
:1018C000EF92FF920F931F93CF93DF93EC0181E090
:1018D000888F9B8D8C8D981305C0E889F98980814C
:1018E00085FD26C0F62E0B8D10E00F5F1F4F0F7386
:1018F0001127E02E8C8DE8120CC00FB607FCFACF32
:10190000E889F989808185FFF5CFCE010E943E0CE0
:10191000F1CF8B8DFE01E80FF11DE35AFF4FF082EE
:101920009FB7F8940B8FEA89FB89808180620AC097
:101930009FB7F894EE89FF896083E889F9898081EF
:101940008370806480839FBF81E090E0DF91CF91BE
:101950001F910F91FF90EF900895CF93DF93EC01CB
:10196000888D8823C9F0EA89FB89808185FD05C0BF
:10197000A889B9898C9186FD0FC00FB607FCF5CFF9
:10198000808185FFF2CFA889B9898C9185FFEDCF41
:10199000CE010E943E0CE7CFDF91CF91089580E009
:1019A00090E0892B29F00E94340C81110C940000E6
:1019B00008953FB7F8948091200290912102A09160
:1019C0002202B091230226B5A89B05C02F3F19F033
:1019D0000196A11DB11D3FBFBA2FA92F982F8827AF
:1019E000820F911DA11DB11DBC01CD0142E0660F0A
:1019F000771F881F991F4A95D1F7089585ED809329
:101A0000BC008091BC0084FDFCCF1092540208956C
:101A10004091F801262F30E0240F311D213231058D
:101A2000DCF4209154022430C9F4FC0180E090E001
:101A3000861758F43091F8012191DC01A852BE4F6D
:101A4000A30FB11D2C930196F3CF8091F801680F7D
:101A50006093F80180E0089581E0089582E00895A0
:101A6000089508950895E091290280912802E817C9
:101A700030F4F0E0E854FE4F808190E008958FEF5D
:101A80009FEF08959091290280912802981750F4B1
:101A9000E92FF0E0E854FE4F208130E09F5F909303
:101AA000290202C02FEF3FEFC9010895809128025B
:101AB00090E020912902821B91090895CF92DF9234
:101AC000EF92FF920F931F93CF93DF937C01CB0193
:101AD0008A0120915502222389F0EB016B01C40E8B
:101AE000D51ECC15DD0569F06991D701ED91FC910A
:101AF0000190F081E02DC7010995F3CF642F0E947A
:101B0000080DC801DF91CF911F910F91FF90EF90C9
:101B1000DF90CF900895CF93DF931F92CDB7DEB7BC
:101B20006983209155022223D1F02091780220323E
:101B300040F021E030E0FC013383228380E090E03C
:101B400015C080915602E82FF0E0E95AFD4F9981C7
:101B500090838F5F809356028093780205C061E086
:101B6000CE0101960E94080D81E090E00F90DF9178
:101B7000CF910895089580E090E00895DC011C96CF
:101B8000ED91FC911D97208116968C91922F9823B0
:101B900081E009F480E00895FC01A085B18586818B
:101BA0009C91611109C0892B8C93A089B1899C916A
:101BB00086818095892308C0809589238C93A0898C
:101BC000B1899C918681892B8C930895FC01A28513
:101BD000B38587819C9161110CC0892B8C93A2895C
:101BE000B3899C918781809589238C9320E63AEE76
:101BF00014C0809589238C93A289B3899C91878195
:101C0000892B8C93A685B785978120E63AEE8C9137
:101C1000892319F42115310529F481E0232B29F4B6
:101C200080E0089521503109F2CF089520E4629FA9
:101C3000C001112484688093BC0081E69AEE209153
:101C4000BC0027FD02C00197D1F78091B900887FC1
:101C5000803511F4611109C08091B900887F883501
:101C600011F4662311F080E008958091BB0008957F
:101C70006093BB0084E88093BC0081E69AEE2091DB
:101C8000BC0027FD02C00197D1F79091B900987F61
:101C900081E0983209F080E00895660F640F609348
:101CA000BB0084E88093BC0081E69AEE2091BC00E2
:101CB00027FD02C00197D1F78091B900887F803459
:101CC00021F4442311F081E008959091B900987FA8
:101CD000983119F481E08427089580E0089584E91B
:101CE0008093BC0081E69AEE2091BC0024FD02C0E6
:101CF0000197D1F78BE490E00197F1F7089584EA1A
:101D00008093BC0081E69AEE2091BC0027FD02C0C2
:101D10000197D1F79091B900987F81E0903109F057
:101D200080E0089584EA8093BC0081E69AEE2091D9
:101D3000BC0027FD02C00197D1F79091B900987FB0
:101D400081E0983009F080E008951F93CF93DF93EE
:101D5000EC01162FE881F9810688F789E02D0995B5
:101D6000882369F0E881F981048CF58DE02D40E04D
:101D7000612FCE010995882321F012E003C010E005
:101D800001C011E0E881F981028CF38DE02DCE01D4
:101D9000099581E0123009F080E0DF91CF911F9129
:101DA000089583E00895DF92EF92FF920F931F93BF
:101DB000CF93DF93EC01F62ED42E152F022FE8815E
:101DC000F9810688F789E02D09958823F9F0E881E3
:101DD000F981048CF58DE02D40E06F2DCE01099541
:101DE0008823B1F0ED2CF12E12E0002391F0F701E1
:101DF00061917F01E881F981068CF78DE02DCE019C
:101E00000995811101C010E00150EFCF10E001C031
:101E100011E0E881F981028CF38DE02DCE01099566
:101E200081E0123009F080E0DF91CF911F910F9196
:101E3000FF90EF90DF900895DF92EF92FF920F9363
:101E40001F93CF93DF93EC01E62EF42ED22E132FA7
:101E5000E881F9810688F789E02D0995882349F101
:101E6000E881F981048CF58DE02D40E06E2DCE01E6
:101E70000995882301F1E881F981068CF78DE02D21
:101E80006F2DCE0109958823C1F0ED2CF12E13E0C2
:101E90000023A1F0F70161917F01E881F981068CAF
:101EA000F78DE02DCE010995811101C010E00150A0
:101EB000EFCF10E003C011E001C012E0E881F9812A
:101EC000028CF38DE02DCE01099581E0133009F0ED
:101ED00080E0DF91CF911F910F91FF90EF90DF9005
:101EE0000895EF92FF920F931F93CF93DF93EC012E
:101EF000162F7A01022FE881F9810688F789E02DF3
:101F00000995882339F1E881F981048CF58DE02D5C
:101F100041E0612FCE0109958823F1F012E0002302
:101F2000E1F061E0023008F460E0E881F98100A0AE
:101F3000F1A1E02DCE010995F70181937F010150B8
:101F40008091B900002321F080FFE9CF10E0E7CFB6
:101F500080FF03C010E001C011E0E881F981028C2C
:101F6000F38DE02DCE01099581E0123009F080E07B
:101F7000DF91CF911F910F91FF90EF900895DF9225
:101F8000EF92FF920F931F93CF93DF93EC01162FE5
:101F9000D42E7901E881F9810688F789E02D099529
:101FA000882309F445C0E881F981048CF58DE02D82
:101FB00040E0612FCE0109958823E1F1E881F981A4
:101FC000068CF78DE02D6D2DCE0109958823A1F1AA
:101FD000E881F981008CF18DE02DCE0109958823EF
:101FE00069F1E881F981048CF58DE02D41E0612FE4
:101FF000CE010995882321F115E0002311F161E05C
:10200000023008F460E0E881F98100A0F1A1E02D40
:10201000CE010995F70181937F0101508091B900AC
:10202000002321F080FFE9CF10E0E7CF80FF09C057
:1020300010E007C011E005C012E003C013E001C0CA
:1020400014E0E881F981028CF38DE02DCE01099531
:1020500081E0153009F080E0DF91CF911F910F9161
:10206000FF90EF90DF900895CF93DF931F92CDB74D
:10207000DEB74983DC01ED91FC910088F189E02D08
:1020800021E0AE014F5F5F4F09950F90DF91CF9137
:1020900008950F93CF93DF931F92CDB7DEB72983B7
:1020A000DC01ED91FC910484F585E02D01E09E01B9
:1020B0002F5F3F4F09950F90DF91CF910F910895BA
:1020C000CF93DF931F92CDB7DEB71982DC01ED917C
:1020D000FC910684F785E02D21E0AE014F5F5F4F54
:1020E000099589810F90DF91CF9108950F93CF9338
:1020F000DF931F92CDB7DEB71982DC01ED91FC9121
:102100000284F385E02D01E09E012F5F3F4F09958A
:1021100089810F90DF91CF910F9108950E947B29C3
:10212000CF92DF92EF92FF920F931F93CF937C0198
:102130008A01C22FFC0184A991E0909355028093FB
:10214000770210925602109278028CE593E00E947A
:102150008B0D81E00E948E1A809154028111FCCF78
:10216000F70194A98C2FC13208F080E221E020937E
:102170005402209353023FEF3093520210925102C7
:10218000380F3093500220932F0220912F02990F85
:10219000922B90932F0290912E02913061F4109225
:1021A0002E0290912F029093BB009091BC0093FD62
:1021B000F8CF95EC01C095EE9093BC00909154023D
:1021C0009130E1F390915102981710F480915102EF
:1021D000A0E3B2E0E8EBF1E090E0981721F02D9158
:1021E00021939F5FFACF109229029093280290E0EA
:1021F0002091280280912902281771F0FF24F3947E
:10220000F90E6801C90ED11C8CE593E00E94420DC5
:10221000F60180839F2DECCF81E09C1380E0CF916D
:102220001F910F91FF90EF90DF90CF900895CF9383
:10223000C42FFC0184A991E090935502809377020A
:1022400010925602109278028CE593E00E948B0D5A
:102250006C2F8CE593E00E948B0D81E00E948E1A1A
:1022600081E0CF9108951F920F920FB60F92112423
:102270002F933F934F935F936F937F938F939F938E
:10228000AF93BF93EF93FF9389E792E00E943E0CD8
:10229000FF91EF91BF91AF919F918F917F916F913E
:1022A0005F914F913F912F910F900FBE0F901F9014
:1022B00018951F920F920FB60F9211242F938F93A0
:1022C0009F93EF93FF93E0918902F0918A028081BE
:1022D000E0918F02F091900282FD12C09081809176
:1022E00092028F5F8F7320919302821751F0E091D9
:1022F0009202F0E0E758FD4F958F8093920201C063
:102300008081FF91EF919F918F912F910F900FBE40
:102310000F901F90189590E0FC01EC55FF4F249111
:10232000FC01E057FF4F3491FC01E458FF4FE4916A
:10233000EE2309F43CC0222339F1233091F038F424
:102340002130A9F0223001F584B58F7D12C02730ED
:1023500091F02830A1F02430B9F4809180008F7D75
:1023600003C0809180008F77809380000DC084B57A
:102370008F7784BD09C08091B0008F7703C08091B2
:10238000B0008F7D8093B000F0E0EE0FFF1FEE589D
:10239000FF4FA591B4919FB7F894611104C08C913F
:1023A0003095382302C0EC913E2B3C939FBF08959B
:1023B000CF93DF9390E0FC01E057FF4F2491FC01A5
:1023C000E458FF4F8491882361F190E0880F991FB2
:1023D000FC01E859FF4FC591D491FC01EE58FF4F25
:1023E000A591B491611109C09FB7F8948881209597
:1023F00082238883EC912E230BC0623061F49FB757
:10240000F8948881322F309583238883EC912E2B8A
:102410002C939FBF06C08FB7F894E8812E2B28839A
:102420008FBFDF91CF910895CF92DF92EF92FF920D
:10243000CF93DF93EC016A017B0160E08A810E9407
:10244000D81161E08A810E948B1160E08B810E942B
:10245000D81161E08B810E948B11A8EEB3E0A70137
:1024600096010E94F8249B01AC0160E074E284EFC5
:1024700090E00E94D624DA01C9014097A109B10970
:10248000B695A795979587958093B8008091B800E9
:102490008A3018F48AE08093B8008091B9008C7F6C
:1024A0008093B900DF91CF91FF90EF90DF90CF90B4
:1024B00008958F929F92AF92BF92CF92DF92EF9248
:1024C000FF926B017C010E94D90C4B015C01C1148D
:1024D000D104E104F104F1F00E94D90CDC01CB013C
:1024E00088199909AA09BB09883E9340A105B1053D
:1024F00070F321E0C21AD108E108F10888EE880ED5
:1025000083E0981EA11CB11CC114D104E104F104A4
:1025100019F7DDCFFF90EF90DF90CF90BF90AF9095
:102520009F908F9008952FB7F89460911C0270913E
:102530001D0280911E0290911F022FBF08951F92CD
:102540000F920FB60F9211242F933F938F939F9367
:10255000AF93BF9380911C0290911D02A0911E0227
:10256000B0911F0230911B0223E0230F2D3720F47E
:102570000196A11DB11D05C026E8230F0296A11DDD
:10258000B11D20931B0280931C0290931D02A09307
:102590001E02B0931F028091200290912102A0910F
:1025A0002202B09123020196A11DB11D8093200249
:1025B00090932102A0932202B0932302BF91AF9186
:1025C0009F918F913F912F910F900FBE0F901F9071
:1025D00018951F920F920FB60F9211242F933F93CD
:1025E0004F935F936F937F938F939F93AF93BF931B
:1025F000EF93FF938091B900887F803609F49CC0E7
:1026000068F5883209F45BC090F4803109F454C055
:1026100038F4882309F4F6C0883009F44DC0F6C0B8
:10262000883109F44CC0803209F45DC0EFC08034B9
:1026300009F468C048F4803309F455C0883309F0C0
:10264000E5C080935202D8C0803509F44FC0883568
:1026500009F45DC0883409F0D9C0D6C0883909F4BE
:10266000C7C0A8F4883709F467C038F4883609F47D
:1026700063C0803709F460C0C9C0883809F4B8C0A5
:10268000803909F45FC0803809F0C0C05BC0803B6E
:1026900009F486C038F4803A09F466C0883A09F42F
:1026A0007FC0B4C0803C09F4A7C0883C09F4A4C032
:1026B000883B09F48AC0AAC080912F0210C0909173
:1026C000510280915002981770F5E091510281E01B
:1026D0008E0F80935102F0E0E05DFD4F808180938A
:1026E000BB0085EC86C0809352028EC0E0915102FF
:1026F00081E08E0F809351028091BB00F0E0E05D9D
:10270000FD4F808390915102809150026EC0E09104
:10271000510281E08E0F809351028091BB00F0E066
:10272000E05DFD4F80838091530281116DC081E097
:1027300080932E0284EA61C083E080935402109259
:102740001A02CFCF80911A02803208F051C0E09176
:102750001A0281E08E0F80931A028091BB00F0E094
:10276000E650FE4F8083BDCF85EC8093BC00109275
:10277000540280911A02803230F4E0911A02F0E0A3
:10278000E650FE4F108260911A0270E0E091240240
:10279000F09125028AEF91E0099510921A0236C055
:1027A00084E0809354021092F9011092F801E091B4
:1027B0002602F091270209958091F801811105C048
:1027C00081E08093F8011092D801E091F90181E055
:1027D0008E0F8093F901F0E0E852FE4F80818093E4
:1027E000BB009091F9018091F801981708F479CF16
:1027F00085E88093BC000AC085EC8093BC001092F1
:10280000540204C0109252020E94FE0CFF91EF91FC
:10281000BF91AF919F918F917F916F915F914F91F8
:102820003F912F910F900FBE0F901F9018950F930F
:102830001F93CF93DF93EC018A81982F9295990F84
:10284000907E8E81880F880F892B0885082B8A85BA
:10285000982F9295990F907E8C85880F880F892BE1
:102860001E85182BE881F9810280F381E02D4C81CF
:1028700062EFCE010995E881F9810280F381E02DB4
:10288000402F64EFCE010995E881F9810280F38140
:10289000E02D412F65EFCE01DF91CF911F910F9178
:1028A0000994FF920F931F93CF93DF931F92CDB79D
:1028B000DEB78C01DC01ED91FC910480F581E02D07
:1028C00021E0AE014F5F5F4F60ED0995898188354A
:1028D00041F0803671F420E630E0F80132AB21ABF4
:1028E0000DC028E530E0D801D2963C932E93D197C5
:1028F00005C0F80112AA11AAF12C3EC0D801D09649
:102900008C93D097ED91FC910480F581E02D26E029
:10291000A801405F5F4F68E8C8010995F82ED8010B
:10292000ED91FC910480F581E02D22E1A8014A5E41
:102930005F4F6EE8C8010995F822D801ED91FC912E
:102940000480F581E02D21E0A801485D5F4F61EA38
:10295000C8010995F822D801ED91FC910480F58118
:10296000E02D27E0A801475D5F4F61EEC8010995A2
:10297000F822C8010E941714F801F3AA8F2D0F90B6
:10298000DF91CF911F910F91FF900895CF93DF9327
:10299000FC01908180916B03813041F0823009F01D
:1029A0006AC0DF0180E021EF30EF4DC0818160E03F
:1029B00040E071EFC0EF262F30E09923B9F14F3F8F
:1029C000A9F151E0540F903D89F4A0E7A80FA0337E
:1029D00028F4DF01A20FB31F805112C08138C9F45F
:1029E000DF01A20FB31FCC93452F17C0913D89F48F
:1029F000A0E8A80FA03130F4DF01A20FB31F805A66
:102A00008C93F2CF813929F4DF01A20FB31F7C939D
:102A1000EBCFDF01A20FB31F9C934F5F6F5FDF010E
:102A2000A40FB11D9C9111968C91C5CFDF01A20F0F
:102A3000B31F20C0983AA9F43C938F5FEF01C80FF1
:102A4000D11D98811196992391F08F3F81F040E438
:102A5000490F403310F4905408C0903F58F3905100
:102A600004C0983B11F42C93E8CF9C93E6CFDF0190
:102A7000A80FB11D1C92CF01DF91CF9108959093C3
:102A80006F0380936E03FC01449140937003319671
:102A90003491309371033196E491E0937203FC0119
:102AA0003396E491E093730321E020937503E49F50
:102AB000A0011124349FF001359FF00D11249F01D6
:102AC00043E0369527954A95E1F7F9013496E80FEA
:102AD000F91FE4914E2F50E06FEF60937603109250
:102AE00079036093770310927A03609378031092CE
:102AF0007B034115510509F430C0F9013596E80F03
:102B0000F91FE491E0937603F9013696E80FF91F77
:102B1000E491E093790341305105F9F0F9013796DA
:102B2000E80FF91FE491E0937703F9013896E80F75
:102B3000F91FE491E0937A034230510571F0F901F5
:102B40003996E80FF91FE491E0937803F9013A967A
:102B5000E80FF91FE491E0937B030895009769F073
:102B6000FC0101900020E9F73197AF01481B590B98
:102B7000BC0189E792E00C943B1B80E090E0089553
:102B8000CF93DF93C8E6D3E0AC81BD81ED91FC919A
:102B900011970480F581E02D282F40E06A81CD0156
:102BA000DF91CF9109942F923F924F925F926F9253
:102BB0007F928F929F92AF92BF92CF92DF92EF92CD
:102BC000FF920F931F93CF93DF93CDB7DEB7639739
:102BD0000FB6F894DEBF0FBECDBF6C015B018A015A
:102BE0002DB73EB73A8B298BE09171038E2F8770FA
:102BF00009F08CC1D6010D900020E9F71197AC19AE
:102C0000BD092091700330E02A9F70012B9FF00CCA
:102C10003A9FF00C112441E8E416F10460F080E8DA
:102C200090E0B9010E940526629F7001639FF00C3D
:102C3000729FF00C11245DEFA516B10489F03CF4ED
:102C40009CEFA916B104C1F41092690317C0AEEF4E
:102C5000AA16B10461F0BFEFAB16B10479F00CC055
:102C600080E890E08E199F099695879502C080E8CC
:102C70008E198093690302C0A09269030B3F11056E
:102C800011F154F40A3F110511F5E695E695E69524
:102C9000E150E09368031DC00D3F110521F00F3F87
:102CA0001105B9F014C088E090E04E2F4695469586
:102CB0004695841B910997FD019695958795E29518
:102CC000EF708E0F01C087E08093680302C000930D
:102CD00068034091690350E0CA018E0D9F1D813841
:102CE000910570F080E890E0841B950BB9010E947B
:102CF0000526629F7001639FF00C729FF00C1124F7
:102D0000EDB7FEB7FC83EB832DB73EB72E193F0915
:102D10000FB6F8943EBF0FBE2DBF4DB75EB74F5FE5
:102D20005F4F5A83498310E0812F012E000C990BCD
:102D300020917103269526952695422F50E0841701
:102D400095070CF0D7C030916803830F911D37FDB4
:102D50009A950196841B950B089708F0C9C00091BD
:102D60007003602F70E0C7010E94F1258091760307
:102D7000A82FB0E0BE83AD8380917903482F50E047
:102D800058874F8380917703A82FB0E0BA87A9872F
:102D900080917A03482F50E05C874B8780917803BD
:102DA000A82FB0E0BE87AD8720907B03312C4090E8
:102DB0007203512C029FA0011124588B4F871003DE
:102DC0004001112454E0850E911C809174038B8B7B
:102DD000A0906E03B0906F03712C872D90E0861742
:102DE000970708F04CC0F601E80FF91F808190E0CA
:102DF000AD81BE81A817B90720F42F813885821BC9
:102E0000930B49855A854817590720F4AB85BC8533
:102E10008A1B9B0B2D853E852817390710F48219D4
:102E2000930984199509AF85B8898A9FA0018B9F62
:102E3000500D9A9F500D1124480D591DA981BA813A
:102E4000709EA00DB11D11249D0180E090E08017BF
:102E5000A0F4FA01E80FF91F6B88EA0DFB1D66204C
:102E600029F064906094F901608202C0E491EC93CF
:102E700001962F5F3F4F1196EACF7394AECF82E257
:102E80000E94C015809168038F5F909171039695A1
:102E900096959695891B810F0E94C01580916803B5
:102EA0008F5F90917103969596959695891B810FEA
:102EB0000E94C01581E20E94C015809169030E94A2
:102EC000C0158091690381508E0D0E94C0158091BC
:102ED0006C0390916D03DC01ED91FC910484F58508
:102EE000E02D0E2D29813A8140E460916A03099515
:102EF0001F5F1ACF80916903E80EE0926903EB81AE
:102F0000FC810FB6F894FEBF0FBEEDBF29893A8948
:102F10000FB6F8943EBF0FBE2DBF63960FB6F89460
:102F2000DEBF0FBECDBFDF91CF911F910F91FF90FC
:102F3000EF90DF90CF90BF90AF909F908F907F9059
:102F40006F905F904F903F902F900895EF92FF9277
:102F50000F931F93CF93DF93CDB7DEB7C058D1093E
:102F60000FB6F894DEBF0FBECDBFFE01319680E0F4
:102F70007F0111928F5F8038E1F710E082E20E94BA
:102F8000C015812F0E94C015812F0E94C01581E2BB
:102F90000E94C01580E00E94C0158FE70E94C015F6
:102FA00080916C0390916D03DC01ED91FC910484A0
:102FB000F585E02D00E8970140E460916A030995EA
:102FC0001F5F1830D9F6C058DF4F0FB6F894DEBF38
:102FD0000FBECDBFDF91CF911F910F91FF90EF906A
:102FE00008958F929F92AF92BF920F931F93CF93AA
:102FF000DF93CDB7DEB7A1970FB6F894DEBF0FBE53
:10300000CDBF19A2423008F44AE08E010F5D1F4F78
:10301000842E912CA12CB12CA50194010E94D624C0
:10302000E62FB901CA0101501109EA3014F4E05D3C
:1030300001C0E95CD801EC93232B242B252B61F7ED
:10304000C8010E94AE15A1960FB6F894DEBF0FBE60
:10305000CDBFDF91CF911F910F91BF90AF909F9007
:103060008F900895CF92DF92EF92FF920F931F936C
:10307000CF93DF93CDB7DEB7FC017B016A010DB7BB
:103080001EB7DC010D900020E9F7CD018E1B9F0BD0
:103090002DB73EB7281B390B0FB6F8943EBF0FBEB5
:1030A0002DBF4DB75EB74F5F5F4F90E0292F30E0E7
:1030B000DF010D900020E9F71197AE1BBF0BA2179F
:1030C000B30758F0BA01620F731F2E0F3F1FD901CB
:1030D0008C91DB018C939F5FE9CFCA010E94C614DB
:1030E00020917503222321F0A601B7010E94D31578
:1030F0000FB6F8941EBF0FBE0DBFDF91CF911F9189
:103100000F91FF90EF90DF90CF9008952F923F9214
:103110004F925F926F927F928F929F92AF92BF92E7
:10312000CF92DF92EF92FF920F931F93CF93DF9393
:10313000CDB7DEB72B970FB6F894DEBF0FBECDBF6D
:1031400069837A838B839C834D832DB73EB73B87FE
:103150002A87C42ED12CE12CF12C812C912C5401E6
:103160008394C114D104E104F10471F0AAE0B0E049
:10317000A50194010E94F8244B015C0131E0C31ABF
:10318000D108E108F108EDCF69817A818B819C81BA
:103190000E94BB256B017C018DB79EB79F838E83F8
:1031A000412C512C3201439412E0C701B601A30116
:1031B00092010E941926232B242B252B51F0AAE0E3
:1031C000B0E0A30192010E94F8242B013C011F5F93
:1031D000ECCFEDB7FEB7E11BF10917FDF3950FB684
:1031E000F894FEBF0FBEEDBF2DB73EB72F5F3F4F28
:1031F00019018FEF810FF901E80FF11D87FDFA9595
:1032000010820EEF010F1C141D041E041F0444F451
:10321000F901E00FF11D07FDFA9510820DEF010F86
:1032200026013701F7FE07C04424552432014C180B
:103230005D086E087F08B201C3012AE0422E512CBE
:10324000612C712C002399F0F101E00FF11D07FDB5
:10325000FA95F987E887A30192010E94D624605D60
:10326000E885F9856083B901CA010150EBCFF7FC0D
:103270000AC02AE030E040E050E00E94D624605DC1
:10328000F101608303C08DE2F1018083C1010E94DE
:10329000C61420917503222331F04BEF50E06CEF00
:1032A00070E00E94D3152E813F810FB6F8943EBF87
:1032B0000FBE2DBF3D81332309F4C6C04FEF50E050
:1032C0006FEF70E083EB91E00E943218C501B4010A
:1032D0000E94A72329813A814B815C810E940824A6
:1032E0006B017C0120E030E0A90169817A818B814A
:1032F0009C810E94A22387FD05C020E030E040E8C9
:103300005FE304C020E030E040E85FEBC701B601B6
:103310000E9408240E94C225A50194010E94D6247F
:103320006B017C016983DE8287016115710581056E
:10333000910519F02B013C010EC04FEF50E06FEFEB
:1033400070E085EB91E00E9432188D8181508D8371
:103350008111F3CF79C0AAE0B0E0A30192010E94ED
:10336000F8242B013C01681579058A059B0548F472
:103370004FEF50E06FEF70E085EB91E00E94321864
:10338000EACF8DB69EB6212C312C210123947724CF
:103390007394C701B601A20191010E94D624232B88
:1033A000242B252B51F0AAE0B0E0A20191010E944C
:1033B000F8241B012C017394ECCFEDB7FEB7E7198D
:1033C000F10977FCF3950FB6F894FEBF0FBEEDBF81
:1033D0002DB73EB72F5F3F4F79017A94F901E70D82
:1033E000F11D77FCFA9510828AE0282E312C412CB1
:1033F000512C7720B9F06701C70CD11C77FCDA9407
:1034000031E0C31AD10869817E81C801A20191010E
:103410000E94D624605DF601608329833E838A0181
:103420007A94E7CFC7010E94C61420917503222326
:1034300031F04FEF50E06FEF70E00E94D3150FB600
:10344000F8949EBE0FBE8DBE2A853B850FB6F894BC
:103450003EBF0FBE2DBF2B960FB6F894DEBF0FBE3A
:10346000CDBFDF91CF911F910F91FF90EF90DF9033
:10347000CF90BF90AF909F908F907F906F905F9014
:103480004F903F902F900895CF92DF92EF92FF924E
:103490000F931F93CF93DF93CDB7DEB7CDB6DEB6D4
:1034A000FC010481158198012F5F3F4F4DB75EB736
:1034B000421B530B0FB6F8945EBF0FBE4DBFEDB766
:1034C000FEB731967F01232B71F00115110551F0E4
:1034D000FC0160817181A801C7010E948929F7015F
:1034E000E00FF11F1082C7010E94C61420917503DE
:1034F000222331F04AEF50E06DEF70E00E94D315C7
:103500000FB6F894DEBE0FBECDBEDF91CF911F91F6
:103510000F91FF90EF90DF90CF900895282F30917A
:103520007802313208F04AC0809154028111FCCFF8
:103530009091770242E040935402209353022FEF80
:10354000209352021092510230935002E7E5F2E0CC
:10355000A0E3B2E020E0321721F041914D932F5FBC
:10356000FACF10922F0220912F02990F922B909355
:103570002F0290912E02913061F410922E029091C0
:103580002F029093BB009091BC0093FDF8CF95EC77
:1035900001C095EE9093BC00909154029230E1F3FB
:1035A000909152029F3F79F080915202803241F017
:1035B00080915202803331F084E005C081E003C085
:1035C00082E001C083E010925602109278021092BD
:1035D00055020895CF92DF92EF92FF920F931F93BF
:1035E000CF93DF93EC016B01E880F98061157105E1
:1035F00061F1CB010E9499238C01E114F10429F0BF
:103600008A819B818017910728F5B8016F5F7F4FF2
:10361000C7010E94B528009759F0998388831B83BE
:103620000A832C813D81232BA9F4FC01108212C056
:1036300088819981009711F00E942C2819821882A4
:103640001D821C821B821A820CC0E114F104B1F3AA
:10365000C701F2CF1D830C83B601888199810E9436
:103660009223CE01DF91CF911F910F91FF90EF90A8
:10367000DF90CF900895CF92DF92EF92FF920F9359
:103680001F93CF93DF936C017A018B01C0E0D0E0F0
:10369000CE15DF0581F0D8016D918D01D601ED9138
:1036A000FC910190F081E02DC6010995892B11F064
:1036B0002196EECF7E01C701DF91CF911F910F912F
:1036C000FF90EF90DF90CF900895CF93DF93CDB729
:1036D000DEB7C156D1090FB6F894DEBF0FBECDBF1D
:1036E000789484B5826084BD84B5816084BD85B5DD
:1036F000826085BD85B5816085BD80916E008160E9
:1037000080936E001092810080918100826080938E
:103710008100809181008160809381008091800090
:103720008160809380008091B10084608093B100BB
:103730008091B00081608093B00080917A008460B5
:1037400080937A0080917A00826080937A008091E1
:103750007A00816080937A0080917A0080688093FB
:103760007A001092C10010925803109259031092DF
:103770005A0310925B0310921803109219031092CF
:103780001A0310921B030E9493126B017C014B01E0
:103790005C0108EB800E0BE0901EA11CB11C0E9486
:1037A00093126C157D058E059F0528F086169706E9
:1037B000A806B906A0F760ED77E080E090E00E94EF
:1037C0005912E0918902F0918A0282E08083E091AF
:1037D0008502F09186021082E0918702F0918802C2
:1037E00080E1808310929102E0918D02F0918E022F
:1037F00086E08083E0918B02F0918C028081806171
:103800008083E0918B02F0918C02808188608083BC
:10381000E0918B02F0918C02808180688083E0913E
:103820008B02F0918C0280818F7D80830E949312A5
:10383000609318037093190380931A0390931B03EA
:103840008CE691E00E94AE150E9493126B017C0100
:103850004B015C011AE0810E911CA11CB11C0E945D
:1038600093126C157D058E059F0528F08616970628
:10387000A806B906A0F711E010932C0380916C0301
:1038800090916D03DC01ED91FC910190F081E02DB0
:1038900044E650E060E070E009958EEA0E94C015B1
:1038A00085ED0E94C01580E80E94C01588EA0E943C
:1038B000C0158FE30E94C01583ED0E94C01580E003
:1038C0000E94C01580E40E94C0158DE80E94C015BA
:1038D00084E10E94C01580E20E94C01580E00E9431
:1038E000C01581EA0E94C01588EC0E94C0158AEDBF
:1038F0000E94C01582E10E94C01581E80E94C01597
:103900008FEC0E94C01589ED0E94C01581EF0E94C6
:10391000C0158BED0E94C01580E40E94C01584EA9A
:103920000E94C01586EA0E94C0158FEA0E94C01549
:103930000E94A61710922902109228021092560295
:1039400010927802109254021093530210922E0299
:1039500061E082E10E948B1161E083E10E948B11A2
:103960008091B9008E7F8093B9008091B9008D7FDE
:103970008093B90088E48093B80085E48093BC000C
:1039800080E39DE0909327028093260281E39DE0EF
:1039900090932502809324028CE08093B8008CE7FA
:1039A00093E00E9451149091AF03992311F081117B
:1039B00007C068EE73E080E090E00E945912EFCFFC
:1039C0008091AD039091AE038835910559F0803612
:1039D000910541F08EE791E00E94AE158BE791E0F2
:1039E0000E94AE158EE0EEE7F3E08E010F5F1F4FF1
:1039F000D80101900D928A95E1F785E090E09A83D5
:103A000089839C838B839E838D8323E030E038877A
:103A10002F839A87898784E090E09C878B878EE04C
:103A2000F801AEE7B3E001900D928A95E1F78CE7DB
:103A300093E00E94171483EF90E00E943F1561E02D
:103A40008BE00E94D8119E012F5D3F4F3AA729A716
:103A50000FAB18AF0E949312672B682B692B41F4B0
:103A60000E949312623071058105910508F4E9C046
:103A70000E94931200912A0210912B0220912C0295
:103A800030912D02601771078207930740F460930D
:103A90002A0270932B0280932C0290932D020091A6
:103AA0002A0210912B0220912C0230912D024B0101
:103AB0005C01801A910AA20AB30A950184010A3FA7
:103AC00011052105310508F4BCC060932A027093EA
:103AD0002B0280932C0290932D0224EFA22EBB2464
:103AE000B394C12CD12CA0922403B0922503C09290
:103AF0002603D092270310922803109229031092D4
:103B00002A0310922B0380911C0390911D03A09116
:103B10001E03B0911F038093200390932103A09371
:103B20002203B09323030E94931260931C037093AB
:103B30001D0380931E0390931F030E9493126093B2
:103B400018037093190380931A0390931B030E9428
:103B500093126B017C018BE991E00E94AE154AE063
:103B600061E070E080E090E00E94F11782EA91E06D
:103B70000E94AE154AE0C701B6010E94F11784EA1F
:103B800091E00E94AE1580911C0390911D03A091BD
:103B90001E03B0911F0397018601081B190B2A0B06
:103BA0003B0BC901B8014AE00E94F11784EA91E099
:103BB0000E94AE1580911C0390911D03A0911E03DD
:103BC000B0911F0300912003109121032091220343
:103BD00030912303BC01CD01601B710B820B930B51
:103BE0004AE00E94F11786EA91E00E94AE150E9419
:103BF00093124AE00E94F11788EA91E00E94AE1504
:103C00008BE791E00E94AE150E9493124B015C017C
:103C10006B017C0115E0C10ED11CE11CF11C0E945E
:103C20009312681579058A059B0508F0EFC40E9478
:103C3000931260931C0370931D0380931E03909353
:103C40001F038091840390918503019721F48CE7F1
:103C500093E00E94171428E0AE014F5D5F4F67EFBD
:103C60008CE793E00E949010DE019196FE01319660
:103C70004D9150E060E070E04193519361937193F6
:103C800089A49AA4E815F90599F781111FC0A12C00
:103C9000B12C90ECC92E9FE7D92EA0920001B092D2
:103CA0000101C0920201D0920301A0920401B092DE
:103CB0000501C0920601D0920701A0920801B092BE
:103CC0000901C0920A01D0920B0102C489809A8036
:103CD000AB80BC8060968CAE9DAEAEAEBFAE609742
:103CE0008D809E80AF80B88464968CAE9DAEAEAE63
:103CF000BFAE649789849A84AB84BC8468968CAE8A
:103D00009DAEAEAEBFAE68974D855E856F857889F6
:103D1000ACE0440F551F661F771FAA95D1F789891C
:103D20009A89AB89BC8914E0880F991FAA1FBB1F11
:103D30001A95D1F7482B592B6A2B7B2B8D899E899D
:103D4000AF89B88D04E0B595A795979587950A95A5
:103D5000D1F7842B952BA62BB72B898C9A8CAB8C07
:103D6000BC8CBA2CA92C982C88244D8D5E8D6F8D1F
:103D700078A175016401C42AD52AE62AF72A6C962F
:103D8000CCAEDDAEEEAEFFAE6C9740918C035091A1
:103D90008D0360E070E06C017D0134E0F594E79400
:103DA000D794C7943A95D1F7C41AD50AE60AF70A08
:103DB000E3E0B595A79597958795EA95D1F7440FD8
:103DC000551F661F771F4C015D01841A950AA60ACC
:103DD000B70AA5019401A0918E03B0918F030E94B0
:103DE00038264B015C01ABE0B594A7949794879477
:103DF000AA95D1F7A7019601C701B6010E94C62472
:103E00009B01AC01BCE05595479537952795BA9530
:103E1000D1F7A0919003B09191030E943826DC0164
:103E2000CB011EE0B595A795979587951A95D1F783
:103E300075016401C80ED91EEA1EFB1ECBAADCAABE
:103E4000EDAAFEAAA5E0B0E0A70196010E94F82421
:103E5000DC01CB0180589F4FAF4FBF4F692F7A2FA6
:103E60008B2F992787FD9A950E94A92320E030E0A7
:103E700048EC52E40E9449256093040170930501C7
:103E80008093060190930701809098036E968FAE01
:103E90006E97909099039DAE80909A036D968FAE29
:103EA0006D9790909B039CAE80909C036F968FAE15
:103EB0006F9790909D0399AE80909E03A0968FAED1
:103EC000A09790909F0324969FAE24978090A00384
:103ED000A1968FAEA1979090A10325969FAE2597AE
:103EE0008090A203A2968FAEA2979090A3032696ED
:103EF0009FAE2697FF0CCC08DC2C76012BA93CA9A1
:103F00004DA95EA96C2D7C2D8C2D9C2D345F4140DC
:103F1000510961097109810991092BA73CA74DA796
:103F20005EA76FA778AB89AB9AAB59016A017B0199
:103F30008C010E9440262AAF3BAF27964FAF2797B0
:103F400028965FAF289729966FAF29972A967FAF5B
:103F50002A972B968FAF2B972C969FAF2C9730914B
:103F6000950320919403932F990F990B492F592F63
:103F7000692F792F892F0E9440260CE00E94392753
:103F800019012A013B014C013091970320919603BE
:103F9000932F990F990BAAACBBAC2796CFAC279760
:103FA0002896DFAC28972996EFAC29972A96FFAC84
:103FB0002A972B960FAD2B972C961FAD2C97492F38
:103FC000592F692F792F892F0E94402608E00E94DF
:103FD000522751016201730184010E9470277058B9
:103FE0008F4F9F4F20909203309093035101C12C2B
:103FF000D12CE12CF12C00E010E00E94402601E2DF
:104000000E9452272EAF3FAF21964FAF21972296A5
:104010005FAF229723966FAF2397272E382E492E16
:10402000A0E00E94822709F45EC16F962FAD6F97C2
:1040300099AD990F990BAAACBBAC2796CFAC27973B
:104040002896DFAC28972996EFAC29972A96FFACE3
:104050002A972B960FAD2B972C961FAD2C9739AD29
:10406000492F592F692F792F892F0E94402629AF78
:104070003AAF4BAF552E3B014C016D962FAD6D976E
:104080009CAD990F990BABA4BCA4CDA4DEA4EFA466
:10409000F8A809A91AA93CAD492F592F692F792FE2
:1040A000892F0E94402601E10E943927A9ACBAACB1
:1040B000CBACD52C730184010E94702759016A0191
:1040C0007B01582E192F64964CAD5DAD6EAD7FAD62
:1040D000649784E0440F551F661F771F8A95D1F7B8
:1040E00068968CAD9DADAEADBFAD689724E0B5953B
:1040F000A795979587952A95D1F7842B952BA62B75
:10410000B72B60964CAD5DAD6EAD7FAD60973CE07A
:10411000440F551F661F771F3A95D1F7842B952BB7
:10412000A62BB72B20E030E040E150E0281B390BF4
:104130004A0B5B0BDA01C90139014A01990C660887
:10414000762C43019C01AD01662D762D862D962D92
:104150000FE10E94392739014A01B62FA72FF82F06
:10416000E92F6E962FAD6E979DAD990F990B3DADD2
:10417000492F592F692F792F892F03E20E94392760
:10418000052D0E94702759016A017B018C01930162
:10419000A4016B2F7A2F8F2F9E2F0E947927E5E3A2
:1041A000AE2EFCE0BF2EC12CD12CE12CF12C00E076
:1041B00010E00E944026AEACBFAC2196CFAC219758
:1041C0002296DFAC22972396EFAC2397F22C032D97
:1041D000142D0E949B262BA73CA74DA75EA76FA777
:1041E00078AB89AB9AAB0DE00E945227322E292E74
:1041F000A2962FADA29726969FAD2697990F990B61
:10420000A32CB32EC42ED52EE62EF72E082F122D5A
:1042100026963FAD2697492F592F692F792F892F41
:104220000E9440260E94402609E10E945227ABA42A
:10423000BCA4CDA4DEA4EFA4F8A809A91AA90E94E1
:10424000702719012A013B014C01A1962FADA197BE
:1042500025969FAD2597990F990B25963FAD2597EC
:10426000492F592F692F792F892F0E94402603E16A
:104270000E94522759016A017B018C019101A20120
:10428000B301C4010E94702708E00E94522759011F
:104290006A017B01E82F192FA0962FADA0972496D5
:1042A0009FAD2497990F990B24963FAD2497492FE2
:1042B000592F692F792F892F04E00E9439270E2F5B
:1042C0000E947027B901CA010E94A72320E030E0B4
:1042D00040E85BE30E94082427E832E545E053E428
:1042E0000E94492504C060E070E080EC9FE7609385
:1042F00008017093090180930A0190930B012091AA
:10430000A903CBA8DCA8EDA8FEA83CE2D31A31E0B3
:10431000E30AF1086C968CAC9DACAEACBFAC6C976C
:104320003EE0880C991CAA1CBB1C3A95D1F78091E1
:10433000A80340E1849FC0011124322F3F70832BDA
:10434000092E000CAA0BBB0B44E1880F991FAA1F72
:10435000BB1F4A95D1F7881A990AAA0ABB0AA091ED
:10436000AA0350E1A59FD001112422952F70A22B02
:10437000A70196010E943826861A970AA80AB90A48
:1043800080E4980EA11CB11C6FE0B594A79497949B
:1043900087946A95D1F7A091A703B0E00E94F82412
:1043A0002B013C017BE075946794579447947A9570
:1043B000D1F790E8590E611C711CA091AB030A2E35
:1043C000000CBB0B0E943826EAE0959587957795FF
:1043D0006795EA95D1F7A30192010E94C624DC01FA
:1043E000CB01FAE0B595A79597958795FA95D1F702
:1043F0009C01AD01405E5F4FA091A503B091A60363
:104400000E943826DC01CB01905EAF4FBF4FBC014C
:10441000CD01AEE09595879577956795AA95D1F7EB
:10442000A50194010E94C6246B017C01BFE0959513
:10443000879577956795BA95D1F79B01AC010E9456
:10444000C6249B01AC0117E05595479537952795F4
:104450001A95D1F7A091A403B0E00E94F824DC01E2
:10446000CB0104E0B595A795979587950A95D1F767
:1044700046015701881A990AAA0ABB0AD501C40144
:10448000B7FE03C080E090E0DC0181309105A1051A
:1044900009E1B00724F080E090E0A0E0B9E1BC01C0
:1044A000CD012CE095958795779567952A95D1F75D
:1044B0000E94A72320E030E040E85AE30E9408244D
:1044C00060930001709301018093020190930301B6
:1044D0008AE791E10E943F15609104017091050106
:1044E000809106019091070142E00E94861883EFB7
:1044F00090E00E943F1543E051E06EEF70E08FEADC
:1045000091E00E9432181A8219821C821B821E823C
:104510001D826CED70E08FA998AD0E94EA1A8FA9F8
:1045200098AD0E94441A89819A810E942C2868E8DB
:1045300073E180E090E00E9459120E94A6171A824F
:1045400019821C821B821E821D826BEC70E08FA977
:1045500098AD0E94EA1A8FA998AD0E94441A8981E9
:104560009A810E942C288AE791E10E943F15609170
:1045700008017091090180910A0190910B0142E0BC
:104580000E94861868EE73E080E090E00E94591265
:104590000E94A61783EF90E00E943F151A821982AD
:1045A0001C821B821E821D8268EB70E08FA998AD71
:1045B0000E94EA1A8FA998AD0E94441A89819A81B3
:1045C0000E942C288AE791E10E943F15609100012A
:1045D00070910101809102019091030141E00E94DC
:1045E000861883EF90E00E943F154FEF50E06FEF89
:1045F00070E081EB91E00E94321868EE73E080E099
:1046000090E00E9459120E94CF0C24CAC616D70609
:10461000E806F90608F003CB0ACBCF93DF93E9E76E
:10462000F2E01382128288EE93E0A0E0B0E084838F
:104630009583A683B78326E131E03183208325EC7F
:1046400030E03587248724EC30E03787268720EC5C
:1046500030E0318B208B21EC30E0338B228B22EC4D
:1046600030E0358B248B26EC30E0378B268B118E97
:10467000128E138E148EE6E1F3E0168217821086F6
:104680001186128613861486158616861786108A5A
:10469000118A128A138A148A158AECE5F3E01382D0
:1046A000128284839583A683B78388E291E0918305
:1046B0008083ECE7F3E081E090E09383828395834D
:1046C0008483978386839187808785E090E09387B2
:1046D0008287158614861786168613AA86E691E0C9
:1046E0009183808386E784ABC8E6D3E081E08B8347
:1046F000188619861A861B861C861D868CE38A837B
:1047000084E190E00E949427FC018AE391E0918388
:10471000808382E1828383E18383FD83EC83DF9165
:10472000CF910895FB01DC0105900D920020E1F787
:104730000895FC0105900020E9F7809590958E0F73
:104740009F1F08950E94E42308F481E00895E894EF
:1047500009C097FB3EF490958095709561957F4FC9
:104760008F4F9F4F9923A9F0F92F96E9BB27939577
:10477000F695879577956795B795F111F8CFFAF487
:10478000BB0F11F460FF1BC06F5F7F4F8F4F9F4FB8
:1047900016C0882311F096E911C0772321F09EE816
:1047A000872F762F05C0662371F096E8862F70E07C
:1047B00060E02AF09A95660F771F881FDAF7880F56
:1047C0009695879597F90895990F0008550FAA0BAC
:1047D000E0E8FEEF16161706E807F907C0F0121614
:1047E0001306E407F50798F0621B730B840B950B17
:1047F00039F40A2661F0232B242B252B21F408956C
:104800000A2609F4A140A6958FEF811D811D089508
:104810000E941B240C948C240E947E2438F00E9459
:10482000852420F0952311F00C9475240C947B249E
:1048300011240C94C0240E949D2470F3959FC1F311
:10484000950F50E0551F629FF001729FBB27F00D3E
:10485000B11D639FAA27F00DB11DAA1F649F662793
:10486000B00DA11D661F829F2227B00DA11D621FE2
:10487000739FB00DA11D621F839FA00D611D221F9C
:10488000749F3327A00D611D231F849F600D211D80
:10489000822F762F6A2F11249F5750409AF0F1F003
:1048A00088234AF0EE0FFF1FBB1F661F771F881F6C
:1048B00091505040A9F79E3F510580F00C9475240B
:1048C0000C94C0245F3FE4F3983ED4F3869577952B
:1048D0006795B795F795E7959F5FC1F7FE2B880F12
:1048E000911D9695879597F9089597F99F6780E8A8
:1048F00070E060E008959FEF80EC089500240A9432
:104900001616170618060906089500240A941216AA
:104910001306140605060895092E0394000C11F4DD
:10492000882352F0BB0F40F4BF2B11F460FF04C08A
:104930006F5F7F4F8F4F9F4F089557FD9058440FE3
:10494000551F59F05F3F71F04795880F97FB991FEE
:1049500061F09F3F79F087950895121613061406AB
:10496000551FF2CF4695F1DF08C016161706180638
:10497000991FF1CF86957105610508940895E89413
:10498000BB2766277727CB0197F90895DB018F9323
:104990009F930E94F824BF91AF91A29F800D911D1B
:1049A000A39F900DB29F900D11240895A1E21A2E9D
:1049B000AA1BBB1BFD010DC0AA1FBB1FEE1FFF1FC3
:1049C000A217B307E407F50720F0A21BB30BE40B13
:1049D000F50B661F771F881F991F1A9469F760955A
:1049E0007095809590959B01AC01BD01CF01089514
:1049F0000E943A25A59F900DB49F900DA49F800D15
:104A0000911D112408952F923F924F925F926F92C1
:104A10007F928F929F92AF92BF92CF92DF92EF924E
:104A2000FF920F931F93CF93DF93CDB7DEB7CA1BCF
:104A3000DB0B0FB6F894DEBF0FBECDBF09942A88FA
:104A4000398848885F846E847D848C849B84AA84A2
:104A5000B984C884DF80EE80FD800C811B81AA812F
:104A6000B981CE0FD11D0FB6F894DEBF0FBECDBFFA
:104A7000ED010895A29FB001B39FC001A39F700DE7
:104A8000811D1124911DB29F700D811D1124911D56
:104A900008950E945D250C948C240E94852458F072
:104AA0000E947E2440F029F45F3F29F00C94752485
:104AB00051110C94C0240C947B240E949D2468F313
:104AC0009923B1F3552391F3951B550BBB27AA27C7
:104AD00062177307840738F09F5F5F4F220F331F01
:104AE000441FAA1FA9F335D00E2E3AF0E0E832D0C9
:104AF00091505040E695001CCAF72BD0FE2F29D0CC
:104B0000660F771F881FBB1F261737074807AB079D
:104B1000B0E809F0BB0B802DBF01FF2793585F4F12
:104B20003AF09E3F510578F00C9475240C94C02403
:104B30005F3FE4F3983ED4F3869577956795B795F4
:104B4000F7959F5FC9F7880F911D9695879597F9FF
:104B50000895E1E0660F771F881FBB1F6217730778
:104B60008407BA0720F0621B730B840BBA0BEE1F8D
:104B700088F7E09508950E94C2256894B1110C94BD
:104B8000C02408950E94A52488F09F5798F0B92F5B
:104B90009927B751B0F0E1F0660F771F881F991F72
:104BA0001AF0BA95C9F714C0B13091F00E94BF2431
:104BB000B1E008950C94BF24672F782F8827B85F41
:104BC00039F0B93FCCF3869577956795B395D9F7CA
:104BD0003EF490958095709561957F4F8F4F9F4FD4
:104BE0000895AA1BBB1B51E107C0AA1FBB1FA61734
:104BF000B70710F0A61BB70B881F991F5A95A9F786
:104C000080959095BC01CD01089597FB072E16F471
:104C1000009407D077FD09D00E94F12507FC05D04C
:104C20003EF4909581959F4F0895709561957F4FC3
:104C30000895052E97FB1EF400940E94302657FD20
:104C400007D00E94D62407FC03D04EF40C943026E3
:104C500050954095309521953F4F4F4F5F4F0895A8
:104C600090958095709561957F4F8F4F9F4F0895D8
:104C7000B7FF0C94F8240E94F824821B930B08952C
:104C8000DF93CF931F930F939A9DF02D219FF00DEB
:104C90008B9DF00D8A9DE02DF10D039FF00D029F7D
:104CA000E00DF11D4E9DE00DF11D5E9DF00D4F9D3F
:104CB000F00D7F936F93BF92AF925F934F93D501A7
:104CC0000E943A258B01AC01D7010E943A25EB01E5
:104CD000E80FF91FD6010E9490262F913F91D6012F
:104CE0000E943A25C60FD71FE81FF91FAF91BF9149
:104CF0000E9490262F913F910E943A25C60FD71F00
:104D0000E81FF91FD6010E943A25E60FF71F980108
:104D1000BE01CF0111240F911F91CF91DF91089512
:104D20000E943A25460F571FC81FD91F08F4319615
:104D30000895689401C0E894F92FF12B12F00C94B7
:104D4000CD26A0E0B0E0E7EAF6E20C940925092EB2
:104D5000059422F40E942927112392F4F0E80F26EB
:104D6000FFEFE094F09400951095B094C094D09427
:104D7000A194BF0ACF0ADF0AEF0AFF0A0F0B1F0B2D
:104D80000E94D82607FC0E942927CDB7DEB7ECE0A9
:104D90000C942525689401C0E8948F929F92CF933C
:104DA000DF930E94D826DF91CF919F908F90089536
:104DB00088249924F401E401B0E49F93AA279A156A
:104DC0008B049C04ED05FE05CF05D007A10798F4E0
:104DD000AD2FDC2FCF2FFE2FE92D982C892E982F69
:104DE000872F762F652F542F432F322F2227B8502D
:104DF00031F7BF9127C01B2EBF91BB27220F331F56
:104E0000441F551F661F771F881F991F881C991CF8
:104E1000EE1FFF1FCC1FDD1FAA1FBB1F8A149B04A0
:104E2000EC05FD05CE05DF05A007B10748F08A189F
:104E30009B08EC09FD09CE09DF09A00BB10B21602D
:104E40001A94E1F62EF49401AF01BE01CD01000CDD
:104E50000895609570958095909530954095509502
:104E600021953F4F4F4F5F4F6F4F7F4F8F4F9F4F5A
:104E700008950F93083090F0982F872F762F652F85
:104E8000542F432F322F22270850F4CF220F331FE5
:104E9000441F551F661F771F881F991F0A95B2F779
:104EA0000F91089597FB10F8169400080F9308309F
:104EB00098F00850232F342F452F562F672F782F27
:104EC000892F902DF4CF05949795879577956795C1
:104ED00057954795379527950A95AAF70F91089505
:104EE0002A0D3B1D4C1D5D1D6E1D7F1D801F911FDA
:104EF00008952A193B094C095D096E097F09800B49
:104F0000910B08950024A7FD00942A173005400551
:104F1000500560057005800590050895EE0FFF1F90
:104F20000590F491E02D09940F931F93CF93DF9395
:104F30008230910510F482E090E0E091B303F091AB
:104F4000B40320E030E0A0E0B0E0309719F14081F8
:104F500051810281138148175907C8F084179507BA
:104F600069F4109731F012960C93129713961C93D4
:104F700027C00093B3031093B40322C02115310559
:104F800019F04217530718F49A01BD01EF01DF0130
:104F9000F801DBCF21153105F9F0281B390B24303E
:104FA000310580F48A819B816115710521F0FB0137
:104FB0009383828304C09093B4038093B303FE0170
:104FC000329644C0FE01E20FF31F81939193225069
:104FD0003109398328833AC02091B1033091B2035B
:104FE000232B41F420910E0130910F013093B20335
:104FF0002093B10320910C0130910D012115310551
:1050000041F42DB73EB74091100150911101241B7E
:10501000350BE091B103F091B203E217F307A0F46E
:105020002E1B3F0B2817390778F0AC014E5F5F4FFE
:105030002417350748F04E0F5F1F5093B20340937B
:10504000B1038193919302C0E0E0F0E0CF01DF91E2
:10505000CF911F910F910895CF93DF93009709F49B
:1050600081C0FC01329713821282A091B303B091E8
:10507000B403109781F420813181820F931F209116
:10508000B1033091B2032817390751F5F093B203F9
:10509000E093B10367C0ED0120E030E0CE17DF07F9
:1050A00040F44A815B819E0141155105F1F0EA010E
:1050B000F5CFD383C28340815181840F951FC817D8
:1050C000D90759F488819981840F951F029691839D
:1050D00080838A819B81938382832115310529F402
:1050E000F093B403E093B3033DC0E901FB83EA838B
:1050F00049915991C40FD51FEC17FD0761F48081C8
:105100009181840F951F0296E9019983888382819A
:1051100093819B838A83E0E0F0E012968D919C91CD
:105120001397009719F0FD01DC01F7CF8D919C9149
:1051300011979D012E5F3F4F820F931F2091B10366
:105140003091B2032817390769F4309729F4109287
:10515000B4031092B30302C013821282B093B2035D
:10516000A093B103DF91CF910895A0E0B0E0EBEB05
:10517000F8E20C940725EC01009721F4CB010E9482
:105180009427B4C0FC01E60FF71F9C01225031099F
:10519000E217F30708F4A8C0D9010D911C911197EB
:1051A00006171707B0F00530110508F49BC0C801B9
:1051B00004978617970708F495C002501109061B3B
:1051C000170B019311936D937C93CF010E942C28B0
:1051D00089C05B01A01AB10A4C01800E911EA091FA
:1051E000B303B091B403612C712CE12CF12C109716
:1051F00009F446C08D919C911197A815B905B1F598
:105200006C0142E0C40ED11CCA14DB0478F14C01DD
:105210008A189B08640142E0C40ED11C1296BC900F
:1052200012971396AC91B5E0CB16D10440F0B28240
:10523000A38391828082D9016D937C9309C00E5F14
:105240001F4F800F911FF90191838083EB2DFA2F5F
:10525000E114F10431F0D7011396FC93EE93129709
:1052600041C0F093B403E093B3033CC068167906E1
:1052700008F43C017D0112960D90BC91A02DB7CF92
:105280008091B1039091B20388169906E1F46616F5
:105290007706C8F480910C0190910D01009741F4BC
:1052A0008DB79EB74091100150911101841B950B51
:1052B000E817F907C8F4F093B203E093B103F901DA
:1052C000718360830FC0CB010E9494277C010097FB
:1052D00059F0A801BE010E948029CE010E942C280D
:1052E000C70104C0CE0102C080E090E0CDB7DEB7B8
:1052F000EEE00C94232581E090E0F8940C9498293A
:10530000FB01DC0102C001900D9241505040D8F7E2
:105310000895FB01DC014150504048F001900D928E
:105320000020C9F701C01D9241505040E0F7089598
:04533000F894FFCF1F
:105334000000C07F0000C07F0000C07F0000B503F4
:10534400800000000000600C3B1BF70BAD0C280C28
:10535400060C1A0C000000008B0D5E0DBB0D320D07
:10536400560D420D330D0000000014127610491042
:1053740060103410BF0F1C0F710FD30ED10EA50E89
:10538400920E7F0E6F0E4D0E380E160EE60DCC0DDE
:10539400BE0D00000000511417119010564D4450DA
:1053A400565F317C315F564D4450560D0A00466FAE
:1053B400756E6420554E4B4E4F574E2073656E7379
:1053C4006F7221204572726F722100564D44504510
:1053D4005F003A323A007C005F564D445045006FFE
:0853E4000025002E003000003E
:00000001FF
