:100000000C94CD0B0C94F50B0C94F50B0C94F50B98
:100010000C94F50B0C94E7140C94F50B0C94831EC4
:100020000C94F50B0C94F50B0C94F50B0C94F50B50
:100030000C94F50B0C94F50B0C94F50B0C94F50B40
:100040000C949C120C94F50B0C9471150C944B159C
:100050000C94F50B0C94F50B0C94F50B0C94F50B20
:100060000C94E6120C94F50B00000000240027000D
:100070002A0000000008000201000003040700003D
:10008000000000000000D0A2D0B5D0BCD0BFD0B5D9
:10009000D180D0B0D182D183D180D0B000D092D0E5
:1000A000BBD0B0D0B6D0BDD0BED181D182D18C0072
:1000B00018282D0D000000000000000000000000C6
:1000C0000000000000000000000000000000000030
:1000D0000000000000000000000000000000000020
:1000E0000000000000000000000000000000000010
:1000F0000000000000000000000000000000000000
:1001000000000000000000000000000000000000EF
:1001100000000000000000000000000000000000DF
:1001200000000000000000000000000000000000CF
:1001300000000000000000000000000000000000BF
:1001400000000000000000000000000000000000AF
:10015000000000000000000000000000000000009F
:10016000000000000000000000000000000000008F
:1001700000000000000000000000000070F8FCFE1D
:10018000FEFCF8700000000000000000000000000D
:100190000000000000000103030100000000000057
:1001A0000000000000000000000000000080C0C04F
:1001B000C0800000000000000000000000000000FF
:1001C00000000000070F1F3F3F1F0F060000000048
:1001D000000000000000000000000000000000001F
:1001E000000000000000000000000000000000000F
:1001F00000000000387CFEFFFFFE7C38000000009D
:1002000000000000000000000000000000000001ED
:1002100001000000000000000000000000000000DD
:10022000000080C0E0F0F8F8F8F0F0E0C0800000D6
:10023000000000000000C0F0FCFE3F0701030307C0
:100240000F1F3FFFFFFFFFFCF000000000FCFFFF5F
:10025000FFFFC000000000000000000007FFFFFFDC
:10026000FF3F000000000F3FFFFFFFFFFCF8F0E042
:10027000E0C080E0F8FF3F0F030000000000000036
:1002800000010307070F1F1F1F0F070301000000D6
:10029000000000000000000000000080C0E0F0F05E
:1002A000E0C00000000000000000000000000000AE
:1002B0000002070707FFFFFFFFFFFF00000000002D
:1002C00000000000000000000000000000FFFFFF31
:1002D000FFFFFF0000000000000000000000000021
:1002E0000000000000FFFFFFFFFFFF008080800094
:1002F00000000000000000000000000007070F1FC2
:100300003F3F1F0F07030100000000000000000036
:10031000000080C0E0F0F8F8F0F0E0C0808000005D
:10032000000000000000081C3E7F7F3F1F0F0703F6
:10033000030183FFFFFFFFFEFE000000000000003E
:10034000000000000080C0E0F8FCFFFF7F3F1F07B7
:100350000100000000000080E0F0F8FEDFEFEFE7B2
:10036000E3E1E1E0E0C0C0C0C080000000001E1F6B
:100370000F0F0F070707070707070F0F1F1F0F07AD
:10038000030000000000000080C0E0E0F0F8F8F892
:10039000F0F0E0E0C0C0808000000000000000033A
:1003A000070F1F0F07030181C0F0FFFFFFFFFF3F93
:1003B000000000000000000000000E0E0E0F0F0FE6
:1003C0001F3FFFFFFFF9F0E0C000000000183C7E77
:1003D000FFFFFEFCF8F0E0C08000C1FFFFFFFFFF61
:1003E0003F00000000000000000103070F0F0F0F87
:1003F00007070703030100000000000000000000E1
:1004000000000000000080E0F8F8F8F0E0000000D4
:10041000000000000000000000C0E0F83C1F0703DF
:10042000FFFFFFFFFF000000000000000000F8FCDD
:10043000FFE7E3E0E0E0E0E0FFFFFFFFFFE0E0E0F8
:10044000E0E000000000030303030303030303C30E
:10045000FFFFFFFFFFC383C3C303000000000000D2
:10046000000000000000010303070F0F0F07030146
:1004700001000000000000000000F8F8F8F8F8F8AB
:10048000F8F8F8F8F8F87810000000000000000014
:1004900080FFFF070181C1C1E1F1E1E1C1810000FD
:1004A00000000000000000203F3F1F0E0707070765
:1004B0000F1F3FFFFFFFFFFEF8000000000060F08D
:1004C000FCFCFCF8F0F0E0C0C08080E0FFFF7F3F64
:1004D000070000000000000001010307070F0F0FD5
:1004E0000F070703010100000000000000000000EA
:1004F00000000080C0E0F0F8F8F8F0F0E0C0C08044
:1005000000000000000000E0F8FCFE7F0F01010386
:100510008387CFCFDF8F0701000000000000FFFFBF
:10052000FFFFFFB81C1E0E070F1F3F7FFFFFFFFEE0
:10053000F800000000000F3FFFFFFFFFFCF8F0E0B5
:10054000C0C080E0FFFF3F1F070000000000000068
:1005500000010307070F0F0F0F070303010000003F
:100560000000000000000000C0F0F8F8F8F8F8F80B
:10057000F8F8F8F8F8F8F8F8783800000000181ED5
:100580001F07030301010181C1F1F9FD3F0F0301C1
:10059000000000000000000000000080F0FCFEFFF2
:1005A000FF3F070000000000000000000000000006
:1005B00000E0FEFFFFFFFFFF03000000000000005F
:1005C0000000000000000000000F0F0F07070703E6
:1005D000000000000000000000000000000000001B
:1005E0000080E0F0F8F8F8F8F8F8F8F8F0E0C080EB
:1005F000000000000000F0FCFFFFE7C1C181818125
:100600008183C3FFFF7F3F0F00000000000003CF86
:10061000FFFF7F3F3F3F3F3F3F3F7F7FFFFFFEF8B2
:10062000E00000000000FFFFFFFFF8F0E0E0C0C0C6
:10063000C0C0C0E0E0FB7F1F070000000000000317
:1006400007070F0F0F0F1F1F0F0F070301000000F9
:1006500000000000000000000080C0E0F0F0F8F8AA
:10066000F8F0E0E0C08000000000000000C0F8FEEC
:10067000FFFF8701010103070F1F7FFFFFFFFEFC44
:10068000E000000000031F7FFFFFFFFEFCF8F0709A
:10069000383C1ECFFFFFFFFF3F000000000000E0DE
:1006A000F0F9FDFBF1F0E0C0C0E0FCFF7F1F0F019F
:1006B000000000000000000001030307070F0F0FF8
:1006C00007030100000000000000000000D094D0EB
:1006D000B0D0B2D0BBD0B5D0BDD0B8D0B5000C1022
:1006E00020B000000000000000000000000000003A
:1006F000000000000000000000000000000000FEFC
:10070000FE0000000000000000000067670000001D
:100710000000000000160E0000160E000000000091
:1007200000000000000000000000000060E0F87E13
:100730006EE0F87E6E0000767E1F07767E1F07064D
:1007400000000078FCCE86FFFF869E1C1800001873
:10075000387961FFFF61733F1E00003C7E667EBCFE
:10076000E0781E060000000060781E073D7E667E71
:100770003C000000008080FCFEE6E67E3C00001E9F
:100780003F736161717F3F7C6C00000000000016C8
:100790000E0000000000000000000000000000004B
:1007A000000000000000F0FC0E030000000000004C
:1007B00000000F3F70C00000000000000000030EAA
:1007C000FCF00000000000000000C0703F0F0000BF
:1007D000000000000008783C3C78080000000000A1
:1007E000000000000000000000000000808080F099
:1007F000F0808080000000000101010F0F01010165
:1008000000000000000000000000000000000000E8
:10081000000000B0700000000000000080808080B8
:1008200080808080000000000101010101010101C0
:1008300000000000000000000000000000000000B8
:100840000000006060000000000000000000008068
:10085000E0781E060000000060781E07010000001E
:10086000000000F8FC0E060606060EFCF800001F4D
:100870003F7060606060703F1F0000000030381CF7
:10088000FEFE060000000000000000607F7F6000A8
:10089000000000181C1E06060686CEFC78000078B4
:1008A0007C7E6667636361707000000E0E0606C68C
:1008B000E6F6FE9E0E000018387860606060713FBA
:1008C0001F00000080C0E070381CFEFE060000071C
:1008D0000707060606667F7F660000FEFEE6666680
:1008E0006666E6CE8E000018387860606060703F03
:1008F0001F0000F8FCCEC6C6C6C6DE9C1800001F4E
:100900003F7160606060713F1F00001E1E0606069A
:100910000686E67E1E000000000060781E070100CB
:1009200000000078FCCE86868686CEFC7800001E0D
:100930003F7361616161733F1E0000F8FC8E060623
:1009400006068EFCF8000018397B63636363733F0F
:100950001F00000000000030300000000000000018
:100960000000000C0C00000000000000000000303F
:1009700030000000000000000000002C1C000000FF
:100980000000000080C0C0E0607030300000000057
:1009900001030307060E0C0C00000000606060609D
:1009A0006060606000000000060606060606060697
:1009B0000000000030307060E0C0C0800000000027
:1009C0000C0C0E0607030301000000181C1E06068F
:1009D0008686CEFC7800000000006E6F03010100E7
:1009E000000000F8FC0EE6F636F6F60EFCF8001FE6
:1009F0003F70676F6C6F676C2F070000F0FC1E067E
:100A00000606FEFE060000607F7F630303637F7FB0
:100A100060000006FEFE86868686CEFC78000060BA
:100A20007F7F61616161733F1E0000F8FC0E060666
:100A300006061E1C1800001F3F706060606078385A
:100A400018000006FEFE060606060EFCF800006012
:100A50007F7F60606060703F1F000006FEFE86863C
:100A600086C6C60E0E0000607F7F616161636370A1
:100A700070000006FEFE8686C6C6060E0E000060EA
:100A80007F7F610103030000000000F8FC0E0606F2
:100A900006061E1C1800001F3F7060606363733FF2
:100AA0001F000006FEFE86808086FEFE06000060B7
:100AB0007F7F610101617F7F60000000000006FE12
:100AC000FE060000000000000000607F7F60000064
:100AD00000000000000000000006FEFE060000000E
:100AE0001838786060703F1F00000006FEFE8680A8
:100AF000C0F67E1E060000607F7F6101036F7E7876
:100B000060000006FEFE060000000000000000601D
:100B10007F7F60606060607070000006FEFE78E0BD
:100B2000E078FEFE060000607F7F600101607F7F4D
:100B300060000006FEFE78E08006FEFE0600006013
:100B40007F7F6001071E7F7F600000F8FC0E0606B5
:100B500006060EFCF800001F3F7060606060703F8A
:100B60001F000006FEFE060606068EFCF80000606A
:100B70007F7F630303030301000000F8FC0E0606F9
:100B800006060EFCF800001F3F7060606C7C387F2A
:100B90006F000006FEFE060606068EFCF8000060EA
:100BA0007F7F6303036F7F7960000078FCCE8686C9
:100BB00086869E1C18000018387961616161733F58
:100BC0001E00000E0E0606FEFE06060E0E000000BB
:100BD0000000607F7F60000000000006FEFE06004F
:100BE0000006FEFE060000001F3F706060703F1FA1
:100BF00000000006FEFE06000006FEFE06000000E5
:100C0000030F3E78783E0F0300000006FEFE0680CC
:100C10008006FEFE060000001F7F781F1F787F1FE2
:100C2000000000061E7EF6C0C0F67E1E06000060B4
:100C3000787E6F03036F7E78600000067EFEC6003C
:100C400000C6FE7E060000000001637F7F63010096
:100C50000000000E0E060686C6E6763E1E000078F0
:100C60007C6E676361606070700000000000FFFFD1
:100C700003030300000000000000FFFFC0C0C0002D
:100C800000000000061E78E0800000000000000068
:100C900000000001071E786000000000000303034D
:100CA000FFFF00000000000000C0C0C0FFFF000008
:100CB0000000000000303C1E1E3C30000000000020
:100CC0000000000000000000000000000000000024
:100CD00000000000000000606060606060606060B4
:100CE000600000000000000E0E0000000000000088
:100CF0000000000000000000000000C0E070303084
:100D00003070E0C00000001C3E77636363337F7F78
:100D100060000006FEFE6630303070E0C00000600B
:100D20007F7F30606060703F1F0000C0E070303037
:100D30003030F0E0C000001F3F70606060607838C5
:100D4000180000C0E07030303066FEFE0600001F64
:100D50003F70606060307F7F600000C0E0703030C6
:100D6000303070E0C000001F3F76666666667637FA
:100D7000170000000060FCFE660600000000000096
:100D800000007F7F00000000000000C0E0703030F5
:100D90003060F0F03000003377EECCCCCCEE7F3F0B
:100DA00000000006FEFE66303070E0C0000000600B
:100DB0007F7F600000607F7F60000000000030F6F1
:100DC000F6300000000000000000607F7F6000003F
:100DD0000000000000000030F6F6300000000000C7
:100DE000000060607F3F000000000006FEFE0680FD
:100DF000F0F07030300000607F7F63070F7C787008
:100E000060000000000006FEFE060000000000007A
:100E10000000607F7F600000000030F0E03030F0C4
:100E2000E03030F0E000607F7F60007F7F00607F17
:100E30007F600030F0F060303070E0C00000006093
:100E40007F7F600000607F7F600000C0E070303016
:100E5000303070E0C000001F3F7060606060703F25
:100E60001F000030F0F06030303070E0C00000C093
:100E7000FFFFD8303030381F0F0000C0E070303036
:100E80003060F0F03000000F1F38303030D8FFFFF6
:100E9000C000000030F0F0603030706000000000F2
:100EA000607F7F6000000000000000E0F030303024
:100EB00030307070600000193B7B63636363773E82
:100EC0001C0000000030FEFE3000000000000000AA
:100ED00000003F7F6060000000000030F0F0300054
:100EE0000030F0F0300000001F3F706060307F7F06
:100EF00060000030F0F030000030F0F03000000012
:100F000000071F78781F0700000030F0F030000065
:100F1000000030F0F03000031F7C701E1E707C1F3C
:100F2000030000003070F08080F07030000000009E
:100F300060707D0F0F7D70600000000030F0C00019
:100F400000C0F030000000006060733F0F0300003D
:100F50000000000070703030B0F0F0700000000051
:100F6000787C6E67636170700000000080C0FC7E5A
:100F7000070303000000000001033F7EE0C0C00043
:100F800000000000000000FEFE0000000000000065
:100F90000000007F7F000000000000000003030746
:100FA0007EFCC0800000000000C0C0E07E3F030166
:100FB00000000080C0C0C0C0800000808000000130
:100FC0000100000103030303010000000000000012
:100FD0000000000000000000000000000000000011
:100FE00000000000F0FC1E060606FEFE0600006083
:100FF0007F7F630303637F7F60000006FEFEC6C63B
:10100000C6C6C68E0E0000607F7F60606060713F64
:101010001F000006FEFE86868686CEFC78000060F5
:101020007F7F61616161733F1E000006FEFE060660
:101030000606060E0E0000607F7F600000000000C4
:1010400000000000F0FC1E060606FEFE060000780A
:101050007F1F181818181F7F78000006FEFE86866E
:1010600086C6C60E0E0000607F7F6161616363709B
:10107000700000067EFEC0FEFEC0FE7E0600006020
:101080007E7F037F7F037F7E600000181C1E0606A4
:10109000C6C6EEFC38000018387860606060713FAA
:1010A0001F000006FEFE0680E078FEFE06000060DF
:1010B0007F7F1E0701607F7F60000006FEFE0183C8
:1010C000E379FEFE060000607F7F1E0701607F7FE0
:1010D00060000006FEFE8680C0F67E1E06000060F0
:1010E0007F7F6101036F7E7860000000F0FC1E06C8
:1010F0000606FEFE060000607F3F000000607F7F66
:1011000060000006FEFE78E0E078FEFE060000606B
:101110007F7F600101607F7F60000006FEFE8680A9
:101120008086FEFE060000607F7F610101617F7F97
:10113000600000F8FC0E060606060EFCF800001F14
:101140003F7060606060703F1F000006FEFE060694
:101150000606FEFE060000607F7F600000607F7F65
:1011600060000006FEFE060606068EFCF800006023
:101170007F7F630303030301000000F8FC0E0606F3
:1011800006061E1C1800001F3F7060606060783803
:101190001800000E0E0606FEFE06060E0E000000EB
:1011A0000000607F7F600000000000061E7EF6C029
:1011B000C0F67E1E0600006060707D1F0701000003
:1011C000000000F0F81C0CFEFE0C1CF8F000000FF4
:1011D0001F38307F7F30381F0F0000061E7EF6C09C
:1011E000C0F67E1E06000060787E6F03036F7E7877
:1011F00060000006FEFE06000006FEFE060000601F
:101200007F7F606060607F7FE0E00006FEFE86001A
:101210000006FEFE060000000001030303637F7F5B
:1012200060000006FEFE06F0F006FEFE060000600E
:101230007F7F607F7F607F7F60000006FEFE06F09C
:10124000F006FEFE060000607F7F607F7F607F7F8C
:10125000E0E00606FEFE80808080800000000060E6
:101260007F7F61616161733F1E000006FEFE868024
:101270000006FEFE060000607F7F617F1F607F7FAB
:1012800060000006FEFE8680808080000000006016
:101290007F7F61616161733F1E0000181C1E06069E
:1012A00086868EFCF8000018387860606161713FB6
:1012B0001F000006FEFE86F8FC0E060EFCF800601D
:1012C0007F7F611F3F7060703F1F00F8FC8E060635
:1012D0000606FEFE06000060797F6F0303637F7FD2
:1012E000600000C0E07030303070E0C00000001CD2
:1012F0003E77636363337F7F60000030F0F030300F
:1013000030303070700000607F7F63636363773ECE
:101310001C000030F0F030303030F0E0C0000060F1
:101320007F7F63636363773F1C000030F0F03030F1
:1013300030303070700000607F7F6000000000007F
:1013400000000000C0E070303030F0F0300000F0FD
:10135000FF3F303030303FFFF00000C0E0703030F1
:10136000303070E0C000001F3F76666666667637F4
:101370001700003070F080F0F080F07030000060F6
:10138000707D0F7F7F0F7D70600000C0E0F0303017
:101390003030F0E0C0000018387860636363773F56
:1013A0001C000030F0F0300000B0F0F030000060C1
:1013B0007F7F7C0E07637F7F60000030F0F337068D
:1013C00006B7F3F0300000607F7F7C0E07637F7FFD
:1013D00060000030F0F0300080F0F070300000600D
:1013E0007F7F63070F7D787060000000C0E0703081
:1013F0003030F0F0300000607F3F000000607F7F01
:1014000060000030F0F0C08080C0F0F0300000607C
:101410007F7F610707617F7F60000030F0F0300060
:101420000030F0F0300000607F7F630303637F7F54
:10143000600000C0E0703030303070E0C000001F4D
:101440003F7060606060703F1F000030F0F030302F
:101450003030F0F0300000607F7F600000607F7F00
:1014600060000030F0F06030303070E0C00000C04C
:10147000FFFFD8303030381F0F0000C0E070303030
:101480003030F0E0C000001F3F706060606078386E
:1014900018000070703030F0F030307070000000D4
:1014A0000000607F7F6000000000000030F0F0006E
:1014B00000F0F030000000006060733F0F03000098
:1014C000000000C0E07030F8F83070E0C000001F8D
:1014D0003F7060FFFF60703F1F0000003070F080C1
:1014E00080F070300000000060707D0F0F7D706034
:1014F00000000030F0F030000030F0F0300000600C
:101500007F7F606060607F7FE0E00030F0F030005F
:101510000030F0F0300000000307060606667F7F0B
:1015200060000030F0F030808030F0F0300000607B
:101530007F7F607F7F607F7F60000030F0F03080D1
:101540008030F0F0300000607F7F607F7F607F7FC1
:10155000E0E03030F0F0000000000000000000602B
:101560007F7F63636363773E1C0030F0F0300000E0
:10157000000030F0F030607F7F6363773E1C607F57
:101580007F600030F0F030000000000000000060DC
:101590007F7F63636363773E1C0000C0E0F0303000
:1015A000303070E0C0000018387860606363733FCB
:1015B0001F0030F0F030C0E070303070E0C0607F6D
:1015C0007F631F3F706060703F1F00C0E07030306D
:1015D0003030F0F030000061737F6E0606667F7F6A
:1015E0006000000CFCFF8F8C8CCFCF1C1C000060B7
:1015F0007F7F616161636370700000C0E0763630A8
:10160000303676E0C000001F3F7666666666763745
:1016100017000000000000000000000000000000B3
:1016200000000000000000000000000000000000BA
:1016300000000000000000000000000000000000AA
:10164000000000000000000000000000000000009A
:10165000000000000000000000000000000000008A
:10166000000000000000000000000000000000007A
:10167000000000000000000000000000000000006A
:10168000000000000000000000000000000000005A
:10169000000000000000000000000000000000004A
:1016A0000000003C7E66667E3C00000000000000FA
:1016B000000000000000000000000000000000002A
:1016C000000000000000000000000000000000001A
:1016D000000000000000000000000000000000000A
:1016E00000000000000000000000000000000000FA
:1016F00000000000000000000000000000000000EA
:1017000000000000000000000000000000000000D9
:1017100000000000000000000000000000000000C9
:1017200000000000000000000000000000000000B9
:1017300000000000000000000000000000000000A9
:101740000000000000000000000000000000000099
:101750000000000000000000000000000000000089
:10176000000001AF30010204081020408001020493
:1017700008102001020408102000000000250028A5
:10178000002B000404040404040404020202020204
:101790000203030303030302E82711241FBECFEF54
:1017A000D8E0DEBFCDBF12E0A0E0B1E0EAEAFDE59F
:1017B00002C005900D92A635B107D9F724E0A6E541
:1017C000B2E001C01D92A835B207E1F71BE0CDECF5
:1017D000DBE004C02197FE010E94C92CCC3CD1075C
:1017E000C9F70E94051F0C94D32E0C940000FC0135
:1017F000538D448D252F30E0842F90E0821B930B76
:10180000541710F0CF96089501970895FC01918D1B
:10181000828D981761F0828DDF01A80FB11D5D9652
:101820008C91928D9F5F9F73928F90E008958FEFC0
:101830009FEF0895FC01918D828D981731F0828D74
:10184000E80FF11D858D90E008958FEF9FEF0895CB
:10185000FC01918D228D892F90E0805C9F4F821B2F
:1018600091098F739927089580E090E0892B29F0E2
:101870000E94411581110C94000008953FB7F8941F
:101880008091BF029091C002A091C102B091C202AA
:1018900026B5A89B05C02F3F19F00196A11DB11DCB
:1018A0003FBFBA2FA92F982F8827820F911DA11D06
:1018B000B11DBC01CD0142E0660F771F881F991F43
:1018C0004A95D1F7089585ED8093BC008091BC00C6
:1018D00084FDFCCF10922F04089540919702262F8B
:1018E00030E0240F311D21323105DCF420912F042A
:1018F0002430C9F4FC0180E090E0861758F4309160
:1019000097022191DC01A958BD4FA30FB11D2C9363
:101910000196F3CF80919702680F6093970280E061
:10192000089581E0089582E0089508950895089546
:10193000E091C8028091C702E81730F4F0E0E95A5C
:10194000FD4F808190E008958FEF9FEF0895909173
:10195000C8028091C702981750F4E92FF0E0E95AC5
:10196000FD4F208130E09F5F9093C80202C02FEFAF
:101970003FEFC90108958091C70290E02091C8020D
:10198000821B91090895CF92DF92EF92FF920F93FD
:101990001F93CF93DF937C01CB018A012091300408
:1019A000222389F0EB016B01C40ED51ECC15DD0599
:1019B00069F06991D701ED91FC910190F081E02DE2
:1019C000C7010995F3CF642F0E946D0CC801DF9108
:1019D000CF911F910F91FF90EF90DF90CF900895DE
:1019E000CF93DF931F92CDB7DEB769832091300488
:1019F0002223D1F020915304203240F021E030E046
:101A0000FC013383228380E090E015C08091310493
:101A1000E82FF0E0EE5CFB4F998190838F5F80931D
:101A200031048093530405C061E0CE0101960E9409
:101A30006D0C81E090E00F90DF91CF9108950895B3
:101A400080E090E00895DC011C96ED91FC911D97DB
:101A5000208116968C91922F982381E009F480E0E2
:101A60000895FC01A085B18586819C91611109C012
:101A7000892B8C93A089B1899C918681809589233B
:101A800008C0809589238C93A089B1899C91868117
:101A9000892B8C930895FC01A285B38587819C9145
:101AA00061110CC0892B8C93A289B3899C91878189
:101AB000809589238C9320E63AEE14C08095892383
:101AC0008C93A289B3899C918781892B8C93A6855D
:101AD000B785978120E63AEE8C91892319F4211578
:101AE000310529F481E0232B29F480E00895215069
:101AF0003109F2CF089520E4629FC0011124846867
:101B00008093BC0081E69AEE2091BC0027FD02C0C4
:101B10000197D1F78091B900887F803511F4611168
:101B200009C08091B900887F883511F4662311F0CF
:101B300080E008958091BB0008956093BB0084E825
:101B40008093BC0081E69AEE2091BC0027FD02C084
:101B50000197D1F79091B900987F81E0983209F010
:101B600080E00895660F640F6093BB0084E8809363
:101B7000BC0081E69AEE2091BC0027FD02C00197CF
:101B8000D1F78091B900887F803421F4442311F08B
:101B900081E008959091B900987F983119F481E01F
:101BA0008427089580E0089584E98093BC0081E64D
:101BB0009AEE2091BC0024FD02C00197D1F78BE47E
:101BC00090E00197F1F7089584EA8093BC0081E6E4
:101BD0009AEE2091BC0027FD02C00197D1F79091A9
:101BE000B900987F81E0903109F080E0089584EA9F
:101BF0008093BC0081E69AEE2091BC0027FD02C0D4
:101C00000197D1F79091B900987F81E0983009F061
:101C100080E008951F93CF93DF93EC01162FE881A6
:101C2000F9810688F789E02D0995882369F0E88114
:101C3000F981048CF58DE02D40E0612FCE010995EE
:101C4000882321F012E003C010E001C011E0E88118
:101C5000F981028CF38DE02DCE01099581E01230DF
:101C600009F080E0DF91CF911F91089583E00895FE
:101C7000DF92EF92FF920F931F93CF93DF93EC01CC
:101C8000F62ED42E152F022FE881F9810688F789C8
:101C9000E02D09958823F9F0E881F981048CF58D10
:101CA000E02D40E06F2DCE0109958823B1F0ED2C99
:101CB000F12E12E0002391F0F70161917F01E8819C
:101CC000F981068CF78DE02DCE010995811101C0B7
:101CD00010E00150EFCF10E001C011E0E881F98180
:101CE000028CF38DE02DCE01099581E0123009F0D0
:101CF00080E0DF91CF911F910F91FF90EF90DF90E7
:101D00000895DF92EF92FF920F931F93CF93DF938B
:101D1000EC01E62EF42ED22E132FE881F9810688ED
:101D2000F789E02D0995882349F1E881F981048C30
:101D3000F58DE02D40E06E2DCE010995882301F14F
:101D4000E881F981068CF78DE02D6F2DCE01099584
:101D50008823C1F0ED2CF12E13E00023A1F0F70150
:101D600061917F01E881F981068CF78DE02DCE012C
:101D70000995811101C010E00150EFCF10E003C0C0
:101D800011E001C012E0E881F981028CF38DE02DB1
:101D9000CE01099581E0133009F080E0DF91CF9109
:101DA0001F910F91FF90EF90DF900895EF92FF92B7
:101DB0000F931F93CF93DF93EC01162F7A01022F1D
:101DC000E881F9810688F789E02D0995882339F1A2
:101DD000E881F981048CF58DE02D41E0612FCE0181
:101DE00009958823F1F012E00023E1F061E0023070
:101DF00008F460E0E881F98100A0F1A1E02DCE01B6
:101E00000995F70181937F0101508091B90000236A
:101E100021F080FFE9CF10E0E7CF80FF03C010E0A2
:101E200001C011E0E881F981028CF38DE02DCE0133
:101E3000099581E0123009F080E0DF91CF911F9188
:101E40000F91FF90EF900895DF92EF92FF920F9322
:101E50001F93CF93DF93EC01162FD42E7901E881E5
:101E6000F9810688F789E02D0995882309F445C092
:101E7000E881F981048CF58DE02D40E0612FCE01E1
:101E800009958823E1F1E881F981068CF78DE02D31
:101E90006D2DCE0109958823A1F1E881F981008C8F
:101EA000F18DE02DCE010995882369F1E881F98152
:101EB000048CF58DE02D41E0612FCE01099588233A
:101EC00021F115E0002311F161E0023008F460E037
:101ED000E881F98100A0F1A1E02DCE010995F7017B
:101EE00081937F0101508091B900002321F080FF90
:101EF000E9CF10E0E7CF80FF09C010E007C011E094
:101F000005C012E003C013E001C014E0E881F981CC
:101F1000028CF38DE02DCE01099581E0153009F09A
:101F200080E0DF91CF911F910F91FF90EF90DF90B4
:101F30000895CF93DF931F92CDB7DEB74983DC01BD
:101F4000ED91FC910088F189E02D21E0AE014F5F19
:101F50005F4F09950F90DF91CF9108950F93CF9325
:101F6000DF931F92CDB7DEB72983DC01ED91FC91A1
:101F70000484F585E02D01E09E012F5F3F4F099518
:101F80000F90DF91CF910F910895CF93DF931F9220
:101F9000CDB7DEB71982DC01ED91FC910684F7859F
:101FA000E02D21E0AE014F5F5F4F099589810F90D1
:101FB000DF91CF9108950F93CF93DF931F92CDB709
:101FC000DEB71982DC01ED91FC910284F385E02DEE
:101FD00001E09E012F5F3F4F099589810F90DF91AE
:101FE000CF910F9108950E94B62ECF92DF92EF927B
:101FF000FF920F931F93CF937C018A01C22FFC01A4
:1020000084A991E09093300480935204109231049B
:10201000109253048AEA93E00E94F00C81E00E943F
:10202000D61D80912F048111FCCFF70194A98C2F2C
:10203000C13208F080E221E020932F0420932E0487
:102040003FEF30932D0410922C04380F30932B0463
:1020500020930A0420910A04990F922B90930A046A
:1020600090910904913061F41092090490910A044E
:102070009093BB009091BC0093FDF8CF95EC01C00C
:1020800095EE9093BC0090912F049130E1F39091E4
:102090002C04981710F480912C04ABE0B4E0E7E531
:1020A000F2E090E0981721F02D9121939F5FFACFF5
:1020B0001092C8029093C70290E02091C7028091CD
:1020C000C802281771F0FF24F394F90E6801C90EB5
:1020D000D11C8AEA93E00E94A70CF60180839F2D11
:1020E000ECCF81E09C1380E0CF911F910F91FF9086
:1020F000EF90DF90CF900895CF93C42FFC0184A977
:1021000091E0909330048093520410923104109225
:1021100053048AEA93E00E94F00C6C2F8AEA93E061
:102120000E94F00C81E00E94D61D81E0CF910895BD
:10213000FC01848DDF01A80FB11DA35ABF4F2C9164
:10214000848D90E001968F739927848FA689B78933
:102150002C93A089B1898C91837080648C93938D2A
:10216000848D981306C00288F389E02D80818F7DCD
:1021700080830895EF92FF920F931F93CF93DF9385
:10218000EC0181E0888F9B8D8C8D981305C0E889C8
:10219000F989808185FD26C0F62E0B8D10E00F5F3A
:1021A0001F4F0F731127E02E8C8DE8120CC00FB655
:1021B00007FCFACFE889F989808185FFF5CFCE0148
:1021C0000E949810F1CF8B8DFE01E80FF11DE35AAC
:1021D000FF4FF0829FB7F8940B8FEA89FB898081CB
:1021E00080620AC09FB7F894EE89FF896083E8890E
:1021F000F98980818370806480839FBF81E090E053
:10220000DF91CF911F910F91FF90EF900895CF93A1
:10221000DF93EC01888D8823C9F0EA89FB898081EE
:1022200085FD05C0A889B9898C9186FD0FC00FB6C0
:1022300007FCF5CF808185FFF2CFA889B9898C9101
:1022400085FFEDCFCE010E949810E7CFDF91CF91AF
:10225000089590E0FC01EE58FF4F2491FC01EB59EA
:10226000F84E3491FC01ED57F84EE491EE2309F459
:102270003CC0222339F1233091F038F42130A9F009
:10228000223001F584B58F7D12C0273091F02830BF
:10229000A1F02430B9F4809180008F7D03C080913B
:1022A00080008F77809380000DC084B58F7784BDC8
:1022B00009C08091B0008F7703C08091B0008F7DFE
:1022C0008093B000F0E0EE0FFF1FE758F84EA591A5
:1022D000B4919FB7F894611104C08C913095382364
:1022E00002C0EC913E2B3C939FBF0895CF93DF93A8
:1022F00090E0FC01EB59F84E2491FC01ED57F84EAB
:102300008491882361F190E0880F991FFC01E859BE
:10231000FF4FC591D491FC01E758F84EA591B491B7
:10232000611109C09FB7F894888120958223888322
:10233000EC912E230BC0623061F49FB7F894888132
:10234000322F309583238883EC912E2B2C939FBFC3
:1023500006C08FB7F894E8812E2B28838FBFDF91BA
:10236000CF910895CF92DF92EF92FF92CF93DF93B8
:10237000EC016A017B0160E08A810E94761161E0D4
:102380008A810E94291160E08B810E94761161E0B0
:102390008B810E942911A8EEB3E0A70196010E944B
:1023A000AE299B01AC0160E074E284EF90E00E94F2
:1023B000F829DA01C9014097A109B109B695A79595
:1023C000979587958093B8008091B8008A3018F46B
:1023D0008AE08093B8008091B9008C7F8093B90027
:1023E000DF91CF91FF90EF90DF90CF9008951F93F2
:1023F000CF93DF93182FEB0161E00E9476112097B5
:1024000011F460E004C0CF3FD10539F461E0812FC1
:10241000DF91CF911F910C942911E12FF0E0EE583C
:10242000FF4FE491E330F9F048F4E130B9F0E230E5
:10243000A1F584B5806284BDC8BD34C0E730E9F041
:10244000E83019F1E43049F5809180008062809392
:102450008000D0938B00C0938A0024C084B580682C
:1024600084BDC7BD1FC080918000806880938000BC
:10247000D0938900C093880015C08091B000806817
:102480008093B000C093B3000DC08091B000806213
:102490008093B000C093B40005C0C038D1050CF0E3
:1024A000B5CFAFCFDF91CF911F9108958F929F92BB
:1024B000AF92BF92CF92DF92EF92FF926B017C01BD
:1024C0000E943E0C4B015C01C114D104E104F104F3
:1024D000F1F00E943E0CDC01CB0188199909AA0990
:1024E000BB09883E9340A105B10570F321E0C21AF3
:1024F000D108E108F10888EE880E83E0981EA11C3F
:10250000B11CC114D104E104F10419F7DDCFFF902F
:10251000EF90DF90CF90BF90AF909F908F900895F5
:102520002FB7F8946091BB027091BC028091BD02FC
:102530009091BE022FBF08951F920F920FB60F9277
:1025400011242F933F938F939F93AF93BF938091C9
:10255000BB029091BC02A091BD02B091BE0230912D
:10256000BA0223E0230F2D3720F40196A11DB11DDF
:1025700005C026E8230F0296A11DB11D2093BA02C3
:102580008093BB029093BC02A093BD02B093BE02A5
:102590008091BF029091C002A091C102B091C2028D
:1025A0000196A11DB11D8093BF029093C002A0931C
:1025B000C102B093C202BF91AF919F918F913F91A1
:1025C0002F910F900FBE0F901F9018951F920F9292
:1025D0000FB60F9211242F933F934F935F936F93F6
:1025E0007F938F939F93AF93BF93EF93FF938091CC
:1025F000B900887F803609F49CC068F5883209F4F8
:102600005BC090F4803109F454C038F4882309F495
:10261000F6C0883009F44DC0F6C0883109F44CC0CA
:10262000803209F45DC0EFC0803409F468C048F41A
:10263000803309F455C0883309F0E5C080932D0438
:10264000D8C0803509F44FC0883509F45DC088349E
:1026500009F0D9C0D6C0883909F4C7C0A8F48837B2
:1026600009F467C038F4883609F463C0803709F488
:1026700060C0C9C0883809F4B8C0803909F45FC0A7
:10268000803809F0C0C05BC0803B09F486C038F4D4
:10269000803A09F466C0883A09F47FC0B4C0803C2F
:1026A00009F4A7C0883C09F4A4C0883B09F48AC097
:1026B000AAC080910A0410C090912C0480912B0430
:1026C000981770F5E0912C0481E08E0F80932C0414
:1026D000F0E0E55FFB4F80818093BB0085EC86C016
:1026E00080932D048EC0E0912C0481E08E0F8093A6
:1026F0002C048091BB00F0E0E55FFB4F808390915C
:102700002C0480912B046EC0E0912C0481E08E0F8C
:1027100080932C048091BB00F0E0E55FFB4F808349
:1027200080912E0481116DC081E08093090484EAB8
:1027300061C083E080932F041092B902CFCF8091C3
:10274000B902803208F051C0E091B90281E08E0FE9
:102750008093B9028091BB00F0E0E756FD4F808383
:10276000BDCF85EC8093BC0010922F048091B902FC
:10277000803230F4E091B902F0E0E756FD4F10826C
:102780006091B90270E0E091C302F091C40289E95E
:1027900092E009951092B90236C084E080932F042C
:1027A0001092980210929702E091C502F091C60231
:1027B000099580919702811105C081E0809397026D
:1027C00010927702E091980281E08E0F8093980238
:1027D000F0E0E958FD4F80818093BB009091980212
:1027E00080919702981708F479CF85E88093BC0010
:1027F0000AC085EC8093BC0010922F0404C0109294
:102800002D040E94630CFF91EF91BF91AF919F91B6
:102810008F917F916F915F914F913F912F910F9089
:102820000FBE0F901F9018950F931F93CF93DF93B8
:10283000EC018A81982F9295990F907E8E81880F56
:10284000880F892B0885082B8A85982F9295990FD8
:10285000907E8C85880F880F892B1E85182BE88128
:10286000F9810280F381E02D4C8162EFCE01099560
:10287000E881F9810280F381E02D402F64EFCE01E1
:102880000995E881F9810280F381E02D412F65EF00
:10289000CE01DF91CF911F910F910994FF920F9379
:1028A0001F93CF93DF931F92CDB7DEB78C01DC016E
:1028B000ED91FC910480F581E02D21E0AE014F5FA8
:1028C0005F4F60ED09958981883541F0803671F45C
:1028D00020E630E0F80132AB21AB0DC028E530E056
:1028E000D801D2963C932E93D19705C0F80112AA35
:1028F00011AAF12C3EC0D801D0968C93D097ED91BF
:10290000FC910480F581E02D26E0A801405F5F4F37
:1029100068E8C8010995F82ED801ED91FC91048072
:10292000F581E02D22E1A8014A5E5F4F6EE8C80103
:102930000995F822D801ED91FC910480F581E02DF4
:1029400021E0A801485D5F4F61EAC8010995F822BE
:10295000D801ED91FC910480F581E02D27E0A801DC
:10296000475D5F4F61EEC8010995F822C8010E94DA
:102970001414F801F3AA8F2D0F90DF91CF911F91BE
:102980000F91FF9008958091C9029091CA02813001
:10299000910559F038F0029771F41092CA02109222
:1029A000C90209C081E090E002C082E090E090930B
:1029B000CA028093C9020E9490126093CB02709366
:1029C000CC028093CD029093CE020C948B1D1F926B
:1029D0000F920FB60F9211240F931F932F933F93D3
:1029E0004F935F936F937F938F939F93AF93BF9317
:1029F000CF93EF93FF934F9917C00E94901260936B
:102A0000D0027093D1028093D2029093D302C1E09E
:102A1000C093D40244E150E060E070E080EB94E0C9
:102A20000E94CD1AC093CF024F9B17C00E949012F4
:102A30000091D0021091D1022091D2023091D302A4
:102A4000DC01CB01801B910BA20BB30B843F9140A7
:102A5000A105B10510F41092D402FF91EF91CF912E
:102A6000BF91AF919F918F917F916F915F914F91A6
:102A70003F912F911F910F910F900FBE0F901F90BC
:102A800018958DE093E00E94280C21E0892B09F431
:102A900020E0822F08951F920F920FB60F921124FB
:102AA0002F933F934F935F936F937F938F939F9356
:102AB000AF93BF93EF93FF938DE093E00E94981044
:102AC000FF91EF91BF91AF919F918F917F916F9106
:102AD0005F914F913F912F910F900FBE0F901F90DC
:102AE00018951F920F920FB60F9211242F938F9368
:102AF0009F93EF93FF93E0911D03F0911E0380815C
:102B0000E0912303F091240382FD12C09081809113
:102B100026038F5F8F7320912703821751F0E09176
:102B20002603F0E0E35FFC4F958F8093260301C0FE
:102B30008081FF91EF919F918F912F910F900FBE08
:102B40000F901F901895CF93DF93FC019081809197
:102B5000B903813041F0823009F06AC0DF0180E0C2
:102B600021EF30EF4DC0818160E040E071EFC0EFB8
:102B7000262F30E09923B9F14F3FA9F151E0540FCE
:102B8000903D89F4A0E7A80FA03328F4DF01A20F3D
:102B9000B31F805112C08138C9F4DF01A20FB31FE7
:102BA000CC93452F17C0913D89F4A0E8A80FA03120
:102BB00030F4DF01A20FB31F805A8C93F2CF81391A
:102BC00029F4DF01A20FB31F7C93EBCFDF01A20F2B
:102BD000B31F9C934F5F6F5FDF01A40FB11D9C91EA
:102BE00011968C91C5CFDF01A20FB31F20C0983A78
:102BF000A9F43C938F5FEF01C80FD11D9881119606
:102C0000992391F08F3F81F040E4490F403310F455
:102C1000905408C0903F58F3905104C0983B11F471
:102C20002C93E8CF9C93E6CFDF01A80FB11D1C9237
:102C3000CF01DF91CF9108959093BD038093BC03A2
:102C4000FC0144914093BE03319634913093BF030D
:102C50003196E491E093C003FC013396E491E09354
:102C6000C10321E02093C303E49FA0011124349FFA
:102C7000F001359FF00D11249F0143E03695279513
:102C80004A95E1F7F9013496E80FF91FE4914E2FC8
:102C900050E06FEF6093C4031092C7036093C503C5
:102CA0001092C8036093C6031092C90341155105E1
:102CB00009F430C0F9013596E80FF91FE491E0936B
:102CC000C403F9013696E80FF91FE491E093C703B6
:102CD00041305105F9F0F9013796E80FF91FE491F9
:102CE000E093C503F9013896E80FF91FE491E093EA
:102CF000C8034230510571F0F9013996E80FF91F08
:102D0000E491E093C603F9013A96E80FF91FE491C4
:102D1000E093C9030895CF93DF93C6EBD3E0AC8172
:102D2000BD81ED91FC9111970480F581E02D282F54
:102D300040E06A81CD01DF91CF9109942F923F92BB
:102D40004F925F926F927F928F929F92AF92BF92BB
:102D5000CF92DF92EF92FF920F931F93CF93DF9367
:102D6000CDB7DEB763970FB6F894DEBF0FBECDBF09
:102D70006C015B018A012DB73EB73A8B298BE0913C
:102D8000BF038E2F877009F08CC1D6010D900020F3
:102D9000E9F71197AC19BD092091BE0330E02A9FD5
:102DA00070012B9FF00C3A9FF00C112441E8E416BF
:102DB000F10460F080E890E0B9010E94672B629F07
:102DC0007001639FF00C729FF00C11245DEFA5164B
:102DD000B10489F03CF49CEFA916B104C1F410923F
:102DE000B70317C0AEEFAA16B10461F0BFEFAB1680
:102DF000B10479F00CC080E890E08E199F09969597
:102E0000879502C080E88E198093B70302C0A09214
:102E1000B7030B3F110511F154F40A3F110511F5E9
:102E2000E695E695E695E150E093B6031DC00D3FAB
:102E3000110521F00F3F1105B9F014C088E090E0B2
:102E40004E2F469546954695841B910997FD019610
:102E500095958795E295EF708E0F01C087E080937E
:102E6000B60302C00093B6034091B70350E0CA0115
:102E70008E0D9F1D8138910570F080E890E0841BD5
:102E8000950BB9010E94672B629F7001639FF00C44
:102E9000729FF00C1124EDB7FEB7FC83EB832DB7C6
:102EA0003EB72E193F090FB6F8943EBF0FBE2DBF97
:102EB0004DB75EB74F5F5F4F5A83498310E0812F54
:102EC000012E000C990B2091BF032695269526957F
:102ED000422F50E0841795070CF0D7C03091B6030D
:102EE000830F911D37FD9A950196841B950B0897CA
:102EF00008F0C9C00091BE03602F70E0C7010E94B6
:102F0000532B8091C403A82FB0E0BE83AD83809182
:102F1000C703482F50E058874F838091C503A82FDF
:102F2000B0E0BA87A9878091C803482F50E05C873A
:102F30004B878091C603A82FB0E0BE87AD87209055
:102F4000C903312C4090C003512C029FA0011124D1
:102F5000588B4F8710034001112454E0850E911CBB
:102F60008091C2038B8BA090BC03B090BD03712CE9
:102F7000872D90E08617970708F04CC0F601E80F00
:102F8000F91F808190E0AD81BE81A817B90720F4B8
:102F90002F813885821B930B49855A85481759071D
:102FA00020F4AB85BC858A1B9B0B2D853E8528179D
:102FB000390710F48219930984199509AF85B889E6
:102FC0008A9FA0018B9F500D9A9F500D1124480D90
:102FD000591DA981BA81709EA00DB11D11249D01BA
:102FE00080E090E08017A0F4FA01E80FF91F6B88E9
:102FF000EA0DFB1D662029F064906094F90160825F
:1030000002C0E491EC9301962F5F3F4F1196EACFF7
:103010007394AECF82E20E948B168091B6038F5FCD
:103020009091BF03969596959695891B810F0E9466
:103030008B168091B6038F5F9091BF0396959695FE
:103040009695891B810F0E948B1681E20E948B1638
:103050008091B7030E948B168091B70381508E0D2B
:103060000E948B168091BA039091BB03DC01ED9115
:10307000FC910484F585E02D0E2D29813A8140E4F0
:103080006091B80309951F5F1ACF8091B703E80ECE
:10309000E092B703EB81FC810FB6F894FEBF0FBE40
:1030A000EDBF29893A890FB6F8943EBF0FBE2DBFF8
:1030B00063960FB6F894DEBF0FBECDBFDF91CF9100
:1030C0001F910F91FF90EF90DF90CF90BF90AF9046
:1030D0009F908F907F906F905F904F903F902F9038
:1030E0000895CF92DF92EF92FF920F931F93CF93A9
:1030F000DF93CDB7DEB7FC017B016A010DB71EB7C8
:10310000DC010D900020E9F7CD018E1B9F0B2DB740
:103110003EB7281B390B0FB6F8943EBF0FBE2DBF2C
:103120004DB75EB74F5F5F4F90E0292F30E0DF0172
:103130000D900020E9F71197AE1BBF0BA217B30744
:1031400058F0BA01620F731F2E0F3F1FD9018C91E7
:10315000DB018C939F5FE9CFCA010E94A3152091E8
:10316000C303222321F0A601B7010E949E160FB6C9
:10317000F8941EBF0FBE0DBFDF91CF911F910F912D
:10318000FF90EF90DF90CF9008952F923F924F9253
:103190005F926F927F928F929F92AF92BF92CF92E7
:1031A000DF92EF92FF920F931F93CF93DF93CDB7F0
:1031B000DEB72B970FB6F894DEBF0FBECDBF698385
:1031C0007A838B839C834D832DB73EB73B872A87B9
:1031D000C42ED12CE12CF12C812C912C5401839400
:1031E000C114D104E104F10471F0AAE0B0E0A5013A
:1031F00094010E94AE294B015C0131E0C31AD10851
:10320000E108F108EDCF69817A818B819C810E9470
:10321000082B6B017C018DB79EB79F838E83412C59
:10322000512C3201439412E0C701B601A30192016F
:103230000E948F29232B242B252B51F0AAE0B0E0EC
:10324000A30192010E94AE292B013C011F5FECCF2C
:10325000EDB7FEB7E11BF10917FDF3950FB6F89432
:10326000FEBF0FBEEDBF2DB73EB72F5F3F4F190119
:103270008FEF810FF901E80FF11D87FDFA9510829C
:103280000EEF010F1C141D041E041F0444F4F90169
:10329000E00FF11D07FDFA9510820DEF010F2601D9
:1032A0003701F7FE07C04424552432014C185D084D
:1032B0006E087F08B201C3012AE0422E512C612C16
:1032C000712C002399F0F101E00FF11D07FDFA9533
:1032D000F987E887A30192010E94F829605DE885DB
:1032E000F9856083B901CA010150EBCFF7FC0AC030
:1032F0002AE030E040E050E00E94F829605DF101F2
:10330000608303C08DE2F1018083C1010E94A31597
:103310002091C303222331F04BEF50E06CEF70E0BB
:103320000E949E162E813F810FB6F8943EBF0FBEBD
:103330002DBF3D81332309F4C6C04FEF50E06FEF3E
:1033400070E082EE91E00E947118C501B4010E9404
:10335000702829813A814B815C810E94D1286B01C0
:103360007C0120E030E0A90169817A818B819C8118
:103370000E946B2887FD05C020E030E040E85FE355
:1033800004C020E030E040E85FEBC701B6010E94D6
:10339000D1280E940F2BA50194010E94F8296B01EE
:1033A0007C016983DE8287016115710581059105C4
:1033B00019F02B013C010EC04FEF50E06FEF70E0B1
:1033C00080E592E00E9471188D8181508D8381117A
:1033D000F3CF79C0AAE0B0E0A30192010E94AE2928
:1033E0002B013C01681579058A059B0548F44FEFD0
:1033F00050E06FEF70E080E592E00E947118EACF34
:103400008DB69EB6212C312C210123947724739400
:10341000C701B601A20191010E94F829232B242B98
:10342000252B51F0AAE0B0E0A20191010E94AE2943
:103430001B012C017394ECCFEDB7FEB7E719F1092E
:1034400077FCF3950FB6F894FEBF0FBEEDBF2DB716
:103450003EB72F5F3F4F79017A94F901E70DF11DD7
:1034600077FCFA9510828AE0282E312C412C512CC1
:103470007720B9F06701C70CD11C77FCDA9431E0F2
:10348000C31AD10869817E81C801A20191010E94FD
:10349000F829605DF601608329833E838A017A946E
:1034A000E7CFC7010E94A3152091C303222331F067
:1034B0004FEF50E06FEF70E00E949E160FB6F89449
:1034C0009EBE0FBE8DBE2A853B850FB6F8943EBFCB
:1034D0000FBE2DBF2B960FB6F894DEBF0FBECDBF2B
:1034E000DF91CF911F910F91FF90EF90DF90CF90E0
:1034F000BF90AF909F908F907F906F905F904F9014
:103500003F902F900895CF92DF92EF92FF920F930A
:103510001F93CF93DF93CDB7DEB7CDB6DEB6FC01F8
:103520000481158198012F5F3F4F4DB75EB7421B55
:10353000530B0FB6F8945EBF0FBE4DBFEDB7FEB78D
:1035400031967F01232B71F00115110551F0FC011B
:1035500060817181A801C7010E94C42EF701E00FAC
:10356000F11F1082C7010E94A3152091C3032223DB
:1035700031F04AEF50E06DEF70E00E949E160FB6FA
:10358000F894DEBE0FBECDBEDF91CF911F910F919B
:10359000FF90EF90DF90CF9008954F925F926F92DF
:1035A0007F928F929F92AF92BF92CF92DF92EF92D3
:1035B000FF920F931F93CF93DF9300D000D01F9201
:1035C000CDB7DEB78C012A013B0180910C0184301C
:1035D00021F08F3F09F03DC205C0E7E9F7E12491F2
:1035E0002D8372C084E080930C01E7E9F7E18491B8
:1035F0008D838F3F09F42DC2813009F441C038F129
:10360000823009F061C01092B0001092B100809138
:10361000B00082608093B0008091B100816080939F
:10362000B100E7E8F7E1E491F0E0EE0FFF1FE758A3
:10363000F84E859194919093080380930703E9E6EF
:10364000F7E1E491E093060322E02D83FDC114BC71
:1036500015BC84B5826084BD85B5816085BDE7E811
:10366000F7E1E491F0E0EE0FFF1FE758F84E859187
:103670009491E9E6F7E1E491E09300041D82E4C14E
:103680001092800010928100809181008860809368
:10369000810080918100816080938100E7E8F7E1FB
:1036A000E491F0E0EE0FFF1FE758F84E85919491FA
:1036B000E9E6F7E1E491E093FF0361E084E00E9432
:1036C000761191E09D838AC08D8187FDC2C161E042
:1036D00084E00E9476118D818D7F09F07FC04801C2
:1036E000A12CB12C60E072E18AE790E0A501940181
:1036F0000E948F2929833A834B835C8369017A0175
:1037000091E0C91AD108E108F1082FEFC216D104DF
:10371000E104F10409F008F44EC060E472E48FE0C3
:1037200090E0A50194010E948F2969017A0181E04E
:10373000C81AD108E108F1089D81923009F52FEFF0
:10374000C216D104E104F10409F008F444C160E9AF
:1037500070ED83E090E0A50194010E948F2969013A
:103760007A0181E0C81AD108E108F1089FEFC91673
:10377000D104E104F10411F008F0BAC083E027C0DD
:103780002FEFC216D104E104F104B9F0B0F068E4FF
:1037900078EE81E090E0A50194010E948F296901F3
:1037A0007A0181E0C81AD108E108F1089D819923C6
:1037B00009F413C1DCC081E001C082E09D81911158
:1037C00006C095B5987F892B85BD44C085E0909152
:1037D000B100987F892B8093B1003CC04801A12C97
:1037E000B12C60E072E18AE790E0A50194010E94AB
:1037F0008F2969017A0181E0C81AD108E108F1082E
:10380000C114D10491E0E906F10488F068E478EE8F
:1038100081E090E0A50194010E948F2969017A015D
:1038200081E0C81AD108E108F10883E001C081E015
:103830009D81913079F490918100987F892B8093BC
:103840008100411451046104710449F42FEF3FEFEA
:10385000A9012CC0411451046104710471F0D80114
:10386000AA0FBB1FA30192010E94AE2928EE33E0EC
:1038700040E050E00E94F82903C02FEF3FEFA9017C
:103880008D81813099F0823019F18111E2C0C7BC7D
:1038900020930504309306044093070450930804D2
:1038A00080916E00826080936E00D3C0D0928900B8
:1038B000C0928800209301043093020440930304D3
:1038C0005093040480916F00826080936F00C1C0A8
:1038D000C092B3002093090330930A0340930B0373
:1038E00050930C0380917000826080937000B1C08F
:1038F00068E478EE81E090E0A50194010E948F29B0
:1039000069017A0191E0C91AD108E108F1082FEFA5
:10391000C216D104E104F10441F138F164E274EF1C
:1039200080E090E0A50194010E948F2969017A014D
:1039300081E0C81AD108E108F1089FEFC916D10447
:10394000E104F10409F008F441CF62E17AE780E094
:1039500090E0A50194010E948F2969017A0181E01C
:10396000C81AD108E108F10819C084E030CF2FEF60
:10397000C216D104E104F10409F008F463C062E165
:103980007AE780E090E0A50194010E948F29690107
:103990007A0191E0C91AD108E108F1088FEFC81641
:1039A000D104E104F104A9F0A0F089819A81AB81EE
:1039B000BC812AE0B595A795979587952A95D1F76B
:1039C0006C017D0121E0C21AD108E108F10887E00D
:1039D000FECE86E0FCCE82E0FACE8FEFC816D10490
:1039E000E104F10469F160F162E17AE780E090E0DE
:1039F000A50194010E948F2969017A0191E0C91AF9
:103A0000D108E108F1082FEFC216D104E104F10456
:103A1000A9F0A0F089819A81AB81BC813AE0B5958B
:103A2000A795979587953A95D1F76C017D0121E08F
:103A3000C21AD108E108F10885E0C3CE84E0C1CE06
:103A400083E0BFCE84E0BACE61E084E00E947611CC
:103A500046CE0F900F900F900F900F90DF91CF9167
:103A60001F910F91FF90EF90DF90CF90BF90AF909C
:103A70009F908F907F906F905F904F900895CF931D
:103A8000DF93009779F0FC0101900020E9F731976E
:103A9000AF01481B590BBC018DE093E00E94611DF2
:103AA000EC0102C0C0E0D0E042E050E062E572E02C
:103AB0008DE093E00E94611D8C0F9D1FDF91CF91DF
:103AC0000895CF92DF92EF92FF920F931F93CF93BF
:103AD000DF936C017A018B01C0E0D0E0CE15DF05E9
:103AE00081F0D8016D918D01D601ED91FC9101908D
:103AF000F081E02DC6010995892B11F02196EECFBA
:103B00007E01C701DF91CF911F910F91FF90EF9040
:103B1000DF90CF900895EF92FF920F931F93CF9372
:103B2000DF93CDB7DEB7C058D1090FB6F894DEBF2A
:103B30000FBECDBFFE01319680E07F0111928F5FF5
:103B40008038E1F710E082E20E948B16812F0E94FC
:103B50008B16812F0E948B1681E20E948B1680E0CB
:103B60000E948B168FE70E948B168091BA0390916A
:103B7000BB03DC01ED91FC910484F585E02D00E8A8
:103B8000970140E46091B80309951F5F1830D9F69A
:103B9000C058DF4F0FB6F894DEBF0FBECDBFDF9128
:103BA000CF911F910F91FF90EF900895282F3091A2
:103BB0005304313208F04AC080912F048111FCCFA8
:103BC0009091520442E040932F0420932E042FEF53
:103BD00020932D0410922C0430932B04E2E3F4E0A4
:103BE000ABE0B4E020E0321721F041914D932F5F1C
:103BF000FACF10920A0420910A04990F922B909305
:103C00000A0490910904913061F410920904909192
:103C10000A049093BB009091BC0093FDF8CF95EC03
:103C200001C095EE9093BC0090912F049230E1F387
:103C300090912D049F3F79F080912D04803241F0C6
:103C400080912D04803331F084E005C081E003C011
:103C500082E001C083E0109231041092530410926C
:103C600030040895CF92DF92EF92FF920F931F934B
:103C7000CF93DF93EC016B01E880F980611571054A
:103C800061F1CB010E9462288C01E114F10429F05A
:103C90008A819B818017910728F5B8016F5F7F4F5C
:103CA000C7010E94F02D009759F0998388831B83E8
:103CB0000A832C813D81232BA9F4FC01108212C0C0
:103CC00088819981009711F00E94672D19821882CE
:103CD0001D821C821B821A820CC0E114F104B1F314
:103CE000C701F2CF1D830C83B601888199810E94A0
:103CF0005B28CE01DF91CF911F910F91FF90EF9044
:103D0000DF90CF9008951F920F920FB60F9211245B
:103D10002F933F934F935F936F937F938F939F93D3
:103D2000AF93BF93EF93FF938091090390910A03A0
:103D3000A0910B03B0910C03892B8A2B8B2B59F18B
:103D400090910603E0910703F09108038081892791
:103D500080838091090390910A03A0910B03B09195
:103D60000C03181619061A061B060CF03DC08091AC
:103D7000090390910A03A0910B03B0910C030197E2
:103D8000A109B1098093090390930A03A0930B033F
:103D9000B0930C0329C080910C01E7E9F7E1E491AD
:103DA0009FEF90930C01E130B9F098F0E230C9F444
:103DB000909170009D7F9093700091E09093B0007F
:103DC0009091B100987F94609093B1001092B300ED
:103DD00008C010926E0005C090916F009D7F909377
:103DE0006F0060E00E942911FF91EF91BF91AF91A8
:103DF0009F918F917F916F915F914F913F912F9103
:103E00000F900FBE0F901F901895CF93DF93CDB7F3
:103E1000DEB7C156D1090FB6F894DEBF0FBECDBFD5
:103E2000789484B5826084BD84B5816084BD85B595
:103E3000826085BD85B5816085BD80916E008160A1
:103E400080936E0010928100809181008260809347
:103E50008100809181008160809381008091800049
:103E60008160809380008091B10084608093B10074
:103E70008091B00081608093B00080917A0084606E
:103E800080937A0080917A00826080937A0080919A
:103E90007A00816080937A0080917A0080688093B4
:103EA0007A001092C10061E089E00E94761161E021
:103EB0008BE00E94761161E08AE00E947611E09129
:103EC0001D03F0911E0382E08083E0911903F091BD
:103ED0001A031082E0911B03F0911C0380E18083A0
:103EE00010922503E0912103F091220386E0808364
:103EF000E0911F03F0912003808180618083E09135
:103F00001F03F0912003808188608083E0911F036C
:103F1000F0912003808180688083E0911F03F091FD
:103F2000200380818F7D80838DE691E00E943F1D7C
:103F300062E087E00E94761180E880936D008091B6
:103F400068008460809368008091BA039091BB03FD
:103F5000DC01ED91FC910190F081E02D44E650E010
:103F600060E070E009958EEA0E948B1685ED0E9454
:103F70008B1680E80E948B1688EA0E948B168FE3CE
:103F80000E948B1683ED0E948B1680E00E948B1698
:103F900080E40E948B168DE80E948B1684E10E94BB
:103FA0008B1680E20E948B1680E00E948B1681EABD
:103FB0000E948B1688EC0E948B168AED0E948B164D
:103FC00082E10E948B1681E80E948B168FEC0E9482
:103FD0008B1689ED0E948B1681EF0E948B168BED5C
:103FE0000E948B1680E40E948B1684EA0E948B1636
:103FF00086EA0E948B168FEA0E948B160E948B1D08
:104000001092C8021092C702109231041092530409
:1040100010922F0481E080932E041092090461E035
:1040200082E10E94291161E083E10E9429118091BF
:10403000B9008E7F8093B9008091B9008D7F809305
:10404000B90088E48093B80085E48093BC0085E9DA
:104050009CE09093C6028093C50286E99CE0909311
:10406000C4028093C3028CE08093B8008AEC93E092
:104070000E944E149091FD03992311F081110BC001
:104080008CE791E00E943F1D68EE73E080E090E0D5
:104090000E945612EBCF8091FB039091FC03883570
:1040A000910531F08036910531F48AE991E005C03F
:1040B00088EB91E002C084EE91E00E943F1D8EE00B
:1040C000ECECF3E08E010F5F1F4FD80101900D92D1
:1040D0008A95E1F785E090E09A8389839C838B83BE
:1040E0009E838D8323E030E038872F839A878987EA
:1040F00084E090E09C878B878EE0F801ACECB3E025
:1041000001900D928A95E1F78AEC93E00E941414D5
:104110008EED96E00E941C1661E084E00E9476110C
:104120009E012F5D3F4F3AA729A70FAB18AF809193
:10413000D402882309F486C00E9490120091D00214
:104140001091D1022091D2023091D302DC01CB0137
:10415000801B910BA20BB30B893E9340A105B105C7
:1041600008F470C01092D4028091050331E08327D7
:10417000809305030E948B1D8EED96E00E941C1615
:104180004AEF50E06DEF70E089E292E00E94711812
:104190004DEF50E06DEF70E08CE392E00E947118FB
:1041A00080910503882309F4E7C64BEF50E06DEFDB
:1041B00070E081E092E00E9471188091050344E66E
:1041C00050E060E070E0882309F4DDC68CED95E0F6
:1041D0000E94CD1A6DE770E080E090E00E945612D8
:1041E00044E650E060E070E08CED95E00E94CD1A6E
:1041F0006DE770E080E090E00E94561244E650E0E7
:1042000060E070E08CED95E00E94CD1A6DE770E003
:1042100080E090E00E94561244E650E060E070E0DA
:104220008CED95E00E94CD1A6DE770E080E090E0A3
:104230000E94561268EE73E080E090E00E945612F1
:104240000E948B1D8091D2039091D303019721F49A
:104250008AEC93E00E94141428E0AE014F5D5F4F9A
:1042600067EF8AEC93E00E94F50FDE019196FE0164
:1042700031964D9150E060E070E04193519361932D
:10428000719389A49AA4E815F90599F781111DC0C5
:1042900000E010E020EC3FE70093000110930101E3
:1042A0002093020130930301009304011093050150
:1042B0002093060130930701009308011093090130
:1042C00020930A0130930B0108C489809A80AB8047
:1042D000BC8060968CAE9DAEAEAEBFAE60978D805A
:1042E0009E80AF80B88464968CAE9DAEAEAEBFAEFD
:1042F000649789849A84AB84BC8468968CAE9DAEA6
:10430000AEAEBFAE68974D855E856F857889ACE0AF
:10431000440F551F661F771FAA95D1F789899A897F
:10432000AB89BC8914E0880F991FAA1FBB1F1A957F
:10433000D1F7482B592B6A2B7B2B8D899E89AF890E
:10434000B88D04E0B595A795979587950A95D1F70F
:10435000842B952BA62BB72B898C9A8CAB8CBC8C81
:10436000BA2CA92C982C88244D8D5E8D6F8D78A148
:1043700095018401042B152B262B372B6C960CAF43
:104380001DAF2EAF3FAF6C974091DA035091DB0326
:1043900060E070E06C017D0134E0F594E794D7941F
:1043A000C7943A95D1F7C41AD50AE60AF70AE3E0AA
:1043B000B595A79597958795EA95D1F7440F551F21
:1043C000661F771F4C015D01841A950AA60AB70A79
:1043D000A5019401A091DC03B091DD030E94B929ED
:1043E0004B015C01ABE0B594A79497948794AA9590
:1043F000D1F7A7019601C701B6010E94432B9B018B
:10440000AC01BCE05595479537952795BA95D1F7FE
:10441000A091DE03B091DF030E94B929DC01CB013A
:104420001EE0B595A795979587951A95D1F79501B3
:104430008401080F191F2A1F3B1F0BAB1CAB2DABB0
:104440003EABA5E0B0E0A90198010E94AE29DC01D5
:10445000CB0180589F4FAF4FBF4F692F7A2F8B2FC3
:10446000992787FD9A950E94722820E030E048EC59
:1044700052E40E94962A6093040170930501809390
:104480000601909307018090E6036D968FAE6D97BD
:104490009090E7039CAE8090E803A2968FAEA2971F
:1044A0009090E90326969FAE26978090EA036F9638
:1044B0008FAE6F979090EB0399AE8090EC03A0962F
:1044C0008FAEA0979090ED0324969FAE2497809096
:1044D000EE03A1968FAEA1979090EF0325969FAE25
:1044E00025978090F0036E968FAE6E979090F103B3
:1044F00023969FAE2397CBA8DCA8EDA8FEA8FF0CBF
:10450000CC08DC2C76012BA93CA94DA95EA96C2D09
:104510007C2D8C2D9C2D345F41405109610971091E
:10452000810991092BA73CA74DA75EA76FA778AB80
:1045300089AB9AAB59016A017B018C010E947B2BEC
:104540002AAF3BAF27964FAF279728965FAF2897A4
:1045500029966FAF29972A967FAF2A972B968FAF10
:104560002B972C969FAF2C973091E3032091E20379
:10457000932F990F990B492F592F692F792F892F35
:104580000E947B2B0CE00E94742C19012A013B0134
:104590004C013091E5032091E403932F990F990B7F
:1045A000AAACBBAC2796CFAC27972896DFAC289750
:1045B0002996EFAC29972A96FFAC2A972B960FAD38
:1045C0002B972C961FAD2C97492F592F692F792F98
:1045D000892F0E947B2B08E00E948D2C51016201E3
:1045E000730184010E94AB2C70588F4F9F4F209015
:1045F000E0033090E1035101C12CD12CE12CF12CCE
:1046000000E010E00E947B2B01E20E948D2C2DAF78
:104610003EAF4FAF21965FAF219722966FAF2297A3
:10462000272E382E492EA0E00E94BD2C09F460C12F
:104630006F962FAD6F9799AD990F990BAAACBBAC44
:104640002796CFAC27972896DFAC28972996EFAC12
:1046500029972A96FFAC2A972B960FAD2B972C966D
:104660001FAD2C9739AD492F592F692F792F892FDD
:104670000E947B2B29AF3AAF4BAF552E3B014C012B
:10468000A2962FADA29726969FAD2697990F990BCC
:10469000ABA4BCA4CDA4DEA4EFA4F8A809A91AA9D0
:1046A00026963FAD2697492F592F692F792F892FAD
:1046B0000E947B2B01E10E94742CA9ACBAACCBAC5C
:1046C000D52C730184010E94AB2C59016A017B0136
:1046D000582E192F64964CAD5DAD6EAD7FAD6497CD
:1046E000E4E0440F551F661F771FEA95D1F76896DF
:1046F0008CAD9DADAEADBFAD6897F4E0B595A79517
:1047000097958795FA95D1F7842B952BA62BB72BE8
:1047100060964CAD5DAD6EAD7FAD60970CE0440F23
:10472000551F661F771F0A95D1F7842B952BA62B53
:10473000B72B20E030E040E150E0281B390B4A0B5A
:104740005B0BDA01C90139014A01990C6608762C24
:1047500043019C01AD01662D762D862D962D0FE12E
:104760000E94742C39014A01B62FA72FF82FE92F88
:104770006D962FAD6D979CAD990F990B3CAD492F60
:10478000592F692F792F892F03E20E94742C052D50
:104790000E94AB2C59016A017B018C019301A40199
:1047A0006B2F7A2F8F2F9E2F0E94B42CE5E3AE2E15
:1047B000FCE0BF2EC12CD12CE12CF12C00E010E04C
:1047C0000E947B2BADACBEACCFAC2196DFAC219769
:1047D0002296EFAC2297F22C032D142D0E94D62B9B
:1047E0002BA73CA74DA75EA76FA778AB89AB9AAB69
:1047F0000DE00E948D2C322E292E6E962FAD6E97D5
:1048000023969FAD2397990F990BA32CB32EC42EFB
:10481000D52EE62EF72E082F122D23963FAD239787
:10482000492F592F692F792F892F0E947B2B0E94A6
:104830007B2B09E10E948D2CABA4BCA4CDA4DEA4EB
:10484000EFA4F8A809A91AA90E94AB2C19012A0102
:104850003B014C01A1962FADA19725969FAD2597C1
:10486000990F990B25963FAD2597492F592F692F01
:10487000792F892F0E947B2B03E10E948D2C5901F7
:104880006A017B018C019101A201B301C4010E9464
:10489000AB2C08E00E948D2C59016A017B01E82FA6
:1048A000192FA0962FADA09724969FAD2497990F0E
:1048B000990B24963FAD2497492F592F692F792FB3
:1048C000892F04E00E94742C0E2F0E94AB2CB9019A
:1048D000CA010E94702820E030E040E85BE30E94BB
:1048E000D12827E832E545E053E40E94962A04C027
:1048F00060E070E080EC9FE760930801709309012D
:1049000080930A0190930B012091F703CBA8DCA8B8
:10491000EDA8FEA83CE2D31A31E0E30AF1086C9658
:104920008CAC9DACAEACBFAC6C975EE0880C991CB7
:10493000AA1CBB1C5A95D1F78091F60340E1849FD5
:10494000C0011124322F3F70832B092E000CAA0BBB
:10495000BB0B64E1880F991FAA1FBB1F6A95D1F793
:10496000881A990AAA0ABB0AA091F80350E1A59FE8
:10497000D001112422952F70A22BA70196010E942D
:10498000B929861A970AA80AB90A80E4980EA11CC8
:10499000B11C7FE0B594A794979487947A95D1F74A
:1049A000A091F503B0E00E94AE292B013C01EBE0A1
:1049B0007594679457944794EA95D1F790E8590E07
:1049C000611C711CA091F9030A2E000CBB0B0E9404
:1049D000B929FAE09595879577956795FA95D1F776
:1049E000A30192010E94432BDC01CB011AE0B59593
:1049F000A795979587951A95D1F79C01AD01405ED3
:104A00005F4FA091F303B091F4030E94B929DC0138
:104A1000CB01905EAF4FBF4FBC01CD010EE095952D
:104A20008795779567950A95D1F7A50194010E941E
:104A3000432B6B017C012FE09595879577956795C2
:104A40002A95D1F79B01AC010E94432B9B01AC013D
:104A500067E055954795379527956A95D1F7A091C9
:104A6000F203B0E00E94AE29DC01CB0174E0B59501
:104A7000A795979587957A95D1F746015701881A9A
:104A8000990AAA0ABB0AD501C401B7FE03C080E097
:104A900090E0DC0181309105A10509E1B00724F027
:104AA00080E090E0A0E0B9E1BC01CD014CE095953B
:104AB0008795779567954A95D1F70E94702820E0F1
:104AC00030E040E85AE30E94D128609300017093DF
:104AD000010180930201909303018091D902811119
:104AE0000DC00E9490126093D5027093D6028093FD
:104AF000D7029093D80211E01093D9020E9490122D
:104B00000091D5021091D6022091D7023091D8029F
:104B1000DC01CB01801B910BA20BB30B843F9140B6
:104B2000A105B10508F4D8C00E9490126093D50287
:104B30007093D6028093D7029093D80220910401FB
:104B400030910501409106015091070160E070E04D
:104B500088EA91E40E94292A6B017C0120E030E080
:104B6000A9010E943E2B18165CF420E030E040E0E2
:104B700050E4C701B6010E946B2818167CF42BC0C4
:104B800020E030E040E050ECC701B6010E943E2B2F
:104B900087FD21C0F7FAF094F7F8F09420E030E0B8
:104BA00048EC52E4C701B6010E94D1280E94082BAC
:104BB0009B01AC01AEECBFEF0E94BC2928EC30E0B9
:104BC00040E050E00E948F29CA01B9016E5C7F4F1E
:104BD0008F4F9F4F02C060E070E08AE00E94F711A3
:104BE000C0900401D0900501E0900601F09007010B
:104BF00020E030E040EB51E4C701B6010E943E2BBB
:104C000018163CF520E030E048EC52E4C701B6014C
:104C10000E94D1280E94082BDC01CB0184539840CC
:104C2000A109B109BC01CD0137E0660F771F881FCC
:104C3000991F3A95D1F728EE33E040E050E00E940A
:104C40008F29B9012F3F310531F02CF06FEF70E063
:104C500002C060E070E089E00E94F711C09004019A
:104C6000D0900501E0900601F090070120E030E0CF
:104C700040EA51E4C701B6010E946B2887FF27C0B4
:104C800020E030E048EC52E4C701B6010E94D12890
:104C90000E94082BDC01CB0184539840A109B10983
:104CA000BC01CD0127E0660F771F881F991F2A9549
:104CB000D1F728E13CEF4FEF5FEF0E948F29B90158
:104CC0002F3F310531F02CF06FEF70E002C060E053
:104CD00070E08BE00E94F7118091CF02882321F0D1
:104CE0001092CF020E94C314809105038823B9F06B
:104CF0000E9490120091CB021091CC022091CD0223
:104D00003091CE02DC01CB01801B910BA20BB30BC7
:104D100089389341A105B10510F00E94C314809118
:104D2000C9029091CA028130910509F466C020F051
:104D3000029709F4C7C01DC18091E50281110DC021
:104D40000E9490126093E1027093E2028093E3026A
:104D50009093E40241E04093E5020E94901200919A
:104D6000E1021091E2022091E3023091E402DC01C1
:104D7000CB01801B910BA20BB30B853F9140A1058A
:104D8000B10508F4F6C080EB90E00E941C1660911B
:104D9000040170910501809106019091070142E0A4
:104DA0000E94C5188EED96E00E941C1643E051E06B
:104DB0006EEF70E085E292E00E9471181A8219820B
:104DC0001C821B821E821D8266E870E08FA998AD4E
:104DD0000E94321E8FA998AD0E94831A89819A8100
:104DE0000E94672D0E9490126093E1027093E2028C
:104DF0008093E3029093E402BCC08091F1028111A0
:104E00000DC00E9490126093ED027093EE028093A9
:104E1000EF029093F00281E08093F1020E949012E1
:104E20000091ED021091EE022091EF023091F0021C
:104E3000DC01CB01801B910BA20BB30B853F914092
:104E4000A105B10508F495C08EED96E00E941C16F0
:104E50001A8219821C821B821E821D826DE970E0FB
:104E60008FA998AD0E94321E8FA998AD0E94831A17
:104E700089819A810E94672D80EB90E00E941C1628
:104E800060910001709101018091020190910301F4
:104E900041E00E94C5188EED96E00E941C164FEF6F
:104EA00050E06FEF70E087E292E00E9471180E947C
:104EB00090126093ED027093EE028093EF02909354
:104EC000F00257C08091FD0281110DC00E94901226
:104ED0006093F9027093FA028093FB029093FC02B4
:104EE00011E01093FD020E9490120091F9021091BE
:104EF000FA022091FB023091FC02DC01CB01801B05
:104F0000910BA20BB30B853F9140A105B10588F130
:104F10008EED96E00E941C161A8219821C821B825A
:104F20001E821D826DEC76E08FA998AD0E94321E24
:104F30008FA998AD0E94831A89819A810E94672D5A
:104F400080EB90E00E941C166091080170910901AD
:104F500080910A0190910B0142E00E94C5180E94C5
:104F600090126093F9027093FA028093FB0290937F
:104F7000FC020E94340CDBC84BEF50E06DEF70E098
:104F800082E192E018C980E090E00E94CD1A64E6C8
:104F900070E080E090E00E94561244E650E060E04D
:104FA00070E088E795E00E94CD1A64E670E080E04A
:104FB00090E00E94561248EC50E060E070E080EB18
:104FC00094E00E94CD1A68EC70E080E090E030C977
:104FD000CF93DF93EDE0F3E01382128288EE93E04B
:104FE000A0E0B0E084839583A683B78327E131E016
:104FF0003183208325EC30E03587248724EC30E0B2
:105000003787268720EC30E0318B208B21EC30E095
:10501000338B228B22EC30E0358B248B26EC30E076
:10502000378B268B118E128E138E148EEAEAF3E0E4
:105030001382128284839583A683B78389E291E0E9
:1050400091838083EAECF3E081E090E093838283B4
:1050500095838483978386839187808785E090E01A
:1050600093878287158614861786168613AA87E685
:1050700091E09183808386E784ABC6EBD3E081E047
:105080008B83188619861A861B861C861D868CE3E0
:105090008A8384E190E00E94CF2CFC018BE391E0B5
:1050A0009183808382E1828383E18383FD83EC8328
:1050B000DF91CF910895FB01DC0105900D92002056
:1050C000E1F70895FC0105900020E9F7809590959F
:1050D0008E0F9F1F08950E94AD2808F481E0089567
:1050E000E89409C097FB3EF4909580957095619582
:1050F0007F4F8F4F9F4F9923A9F0F92F96E9BB2738
:105100009395F695879577956795B795F111F8CFB3
:10511000FAF4BB0F11F460FF1BC06F5F7F4F8F4F1E
:105120009F4F16C0882311F096E911C0772321F014
:105130009EE8872F762F05C0662371F096E8862FAC
:1051400070E060E02AF09A95660F771F881FDAF703
:10515000880F9695879597F90895990F0008550F30
:10516000AA0BE0E8FEEF16161706E807F907C0F0ED
:1051700012161306E407F50798F0621B730B840BF5
:10518000950B39F40A2661F0232B242B252B21F4CF
:1051900008950A2609F4A140A6958FEF811D811D6F
:1051A00008950E94E4280C9455290E94472938F05C
:1051B0000E944E2920F0952311F00C943E290C9466
:1051C000442911240C9489290E94662970F3959F23
:1051D000C1F3950F50E0551F629FF001729FBB27EE
:1051E000F00DB11D639FAA27F00DB11DAA1F649F8A
:1051F0006627B00DA11D661F829F2227B00DA11D3D
:10520000621F739FB00DA11D621F839FA00D611DC2
:10521000221F749F3327A00D611D231F849F600DE3
:10522000211D822F762F6A2F11249F5750409AF00C
:10523000F1F088234AF0EE0FFF1FBB1F661F771F98
:10524000881F91505040A9F79E3F510580F00C9463
:105250003E290C9489295F3FE4F3983ED4F3869568
:1052600077956795B795F795E7959F5FC1F7FE2B03
:10527000880F911D9695879597F9089597F99F67DF
:1052800080E870E060E008959FEF80EC08950024CE
:105290000A941616170618060906089500240A949B
:1052A00012161306140605060895092E0394000C21
:1052B00011F4882352F0BB0F40F4BF2B11F460FFB0
:1052C00004C06F5F7F4F8F4F9F4F089557FD9058D9
:1052D000440F551F59F05F3F71F04795880F97FBBA
:1052E000991F61F09F3F79F0879508951216130674
:1052F0001406551FF2CF4695F1DF08C016161706A3
:105300001806991FF1CF86957105610508940895D7
:10531000E894BB2766277727CB0197F90895052ED8
:1053200097FB1EF400940E94A62957FD07D00E9407
:10533000F82907FC03D04EF40C94A629509540950B
:10534000309521953F4F4F4F5F4F08959095809531
:10535000709561957F4F8F4F9F4F08950E941A2A35
:10536000A59F900DB49F900DA49F800D911D1124B9
:105370000895B7FF0C94AE290E94AE29821B930BAF
:1053800008952F923F924F925F926F927F928F92E9
:105390009F92AF92BF92CF92DF92EF92FF920F93C4
:1053A0001F93CF93DF93CDB7DEB7CA1BDB0B0FB6CE
:1053B000F894DEBF0FBECDBF09942A88398848888B
:1053C0005F846E847D848C849B84AA84B984C88421
:1053D000DF80EE80FD800C811B81AA81B981CE0F18
:1053E000D11D0FB6F894DEBF0FBECDBFED010895FD
:1053F000A1E21A2EAA1BBB1BFD010DC0AA1FBB1FD9
:10540000EE1FFF1FA217B307E407F50720F0A21B4A
:10541000B30BE40BF50B661F771F881F991F1A94B7
:1054200069F760957095809590959B01AC01BD01E1
:10543000CF010895A29FB001B39FC001A39F700D3B
:10544000811D1124911DB29F700D811D1124911D8C
:1054500008955058BB27AA270E94412A0C94552929
:105460000E94472938F00E944E2920F039F49F3FCE
:1054700019F426F40C9444290EF4E095E7FB0C94FF
:105480003E29E92F0E94662958F3BA17620773076D
:105490008407950720F079F4A6F50C9488290EF47A
:1054A000E0950B2EBA2FA02D0B01B90190010C0134
:1054B000CA01A0011124FF27591B99F0593F50F44C
:1054C000503E68F11A16F040A22F232F342F4427A4
:1054D000585FF3CF469537952795A795F04053959C
:1054E000C9F77EF41F16BA0B620B730B840BBAF06C
:1054F0009150A1F0FF0FBB1F661F771F881FC2F7D7
:105500000EC0BA0F621F731F841F48F487957795EA
:105510006795B795F7959E3F08F0B0CF9395880FA4
:1055200008F09927EE0F9795879508950E94AA2A6B
:105530000C9455290E944E2958F00E94472940F0AA
:1055400029F45F3F29F00C943E2951110C948929CC
:105550000C9444290E94662968F39923B1F35523DA
:1055600091F3951B550BBB27AA2762177307840776
:1055700038F09F5F5F4F220F331F441FAA1FA9F30C
:1055800035D00E2E3AF0E0E832D091505040E695FA
:10559000001CCAF72BD0FE2F29D0660F771F881F5B
:1055A000BB1F261737074807AB07B0E809F0BB0B4E
:1055B000802DBF01FF2793585F4F3AF09E3F510562
:1055C00078F00C943E290C9489295F3FE4F3983ECF
:1055D000D4F3869577956795B795F7959F5FC9F74B
:1055E000880F911D9695879597F90895E1E0660FCC
:1055F000771F881FBB1F621773078407BA0720F045
:10560000621B730B840BBA0BEE1F88F7E0950895AD
:105610000E940F2B6894B1110C94892908950E945F
:105620006E2988F09F5798F0B92F9927B751B0F09D
:10563000E1F0660F771F881F991F1AF0BA95C9F716
:1056400014C0B13091F00E948829B1E008950C9403
:105650008829672F782F8827B85F39F0B93FCCF3B6
:10566000869577956795B395D9F73EF49095809593
:10567000709561957F4F8F4F9F4F08950E94AD2881
:1056800008F48FEF0895DB018F939F930E94AE295A
:10569000BF91AF91A29F800D911DA39F900DB29FCE
:1056A000900D11240895AA1BBB1B51E107C0AA1F2E
:1056B000BB1FA617B70710F0A61BB70B881F991FB3
:1056C0005A95A9F780959095BC01CD01089597FB57
:1056D000072E16F4009407D077FD09D00E94532BB3
:1056E00007FC05D03EF4909581959F4F08957095E5
:1056F00061957F4F0895DF93CF931F930F939A9DEA
:10570000F02D219FF00D8B9DF00D8A9DE02DF10D68
:10571000039FF00D029FE00DF11D4E9DE00DF11D68
:105720005E9DF00D4F9DF00D7F936F93BF92AF92F2
:105730005F934F93D5010E941A2A8B01AC01D701C8
:105740000E941A2AEB01E80FF91FD6010E94CB2B09
:105750002F913F91D6010E941A2AC60FD71FE81F2A
:10576000F91FAF91BF910E94CB2B2F913F910E94C7
:105770001A2AC60FD71FE81FF91FD6010E941A2A3E
:10578000E60FF71F9801BE01CF0111240F911F9161
:10579000CF91DF9108950E941A2A460F571FC81F04
:1057A000D91F08F431960895689401C0E894F92F40
:1057B000F12B12F00C94082CA0E0B0E0E2EEFBE23A
:1057C0000C94C729092E059422F40E94642C1123FD
:1057D00092F4F0E80F26FFEFE094F0940095109516
:1057E000B094C094D094A194BF0ACF0ADF0AEF0A04
:1057F000FF0A0F0B1F0B0E94132C07FC0E94642C46
:10580000CDB7DEB7ECE00C94E329689401C0E894CE
:105810008F929F92CF93DF930E94132CDF91CF91B1
:105820009F908F90089588249924F401E401B0E4B6
:105830009F93AA279A158B049C04ED05FE05CF05BE
:10584000D007A10798F4AD2FDC2FCF2FFE2FE92D25
:10585000982C892E982F872F762F652F542F432F22
:10586000322F2227B85031F7BF9127C01B2EBF918E
:10587000BB27220F331F441F551F661F771F881F2A
:10588000991F881C991CEE1FFF1FCC1FDD1FAA1F2C
:10589000BB1F8A149B04EC05FD05CE05DF05A007A0
:1058A000B10748F08A189B08EC09FD09CE09DF0909
:1058B000A00BB10B21601A94E1F62EF49401AF0114
:1058C000BE01CD01000C089560957095809590956E
:1058D00030954095509521953F4F4F4F5F4F6F4FFB
:1058E0007F4F8F4F9F4F08950F93083090F0982F60
:1058F000872F762F652F542F432F322F22270850C2
:10590000F4CF220F331F441F551F661F771F881FB8
:10591000991F0A95B2F70F91089597FB10F8169406
:1059200000080F93083098F00850232F342F452F8C
:10593000562F672F782F892F902DF4CF05949795A8
:1059400087957795679557954795379527950A9544
:10595000AAF70F9108952A0D3B1D4C1D5D1D6E1D6C
:105960007F1D801F911F08952A193B094C095D096D
:105970006E097F09800B910B08950024A7FD009408
:105980002A17300540055005600570058005900513
:105990000895EE0FFF1F0590F491E02D09940F93E9
:1059A0001F93CF93DF938230910510F482E090E053
:1059B000E0915604F091570420E030E0A0E0B0E020
:1059C000309719F14081518102811381481759079D
:1059D000C8F08417950769F4109731F012960C936C
:1059E000129713961C9327C00093560410935704E4
:1059F00022C02115310519F04217530718F49A01F6
:105A0000BD01EF01DF01F801DBCF21153105F9F010
:105A1000281B390B2430310580F48A819B81611564
:105A2000710521F0FB019383828304C09093570496
:105A300080935604FE01329644C0FE01E20FF31F2C
:105A40008193919322503109398328833AC0209160
:105A5000540430915504232B41F420910F013091CF
:105A60001001309355042093540420910D0130917E
:105A70000E012115310541F42DB73EB740911101BA
:105A800050911201241B350BE0915404F091550400
:105A9000E217F307A0F42E1B3F0B2817390778F005
:105AA000AC014E5F5F4F2417350748F04E0F5F1F64
:105AB00050935504409354048193919302C0E0E0C5
:105AC000F0E0CF01DF91CF911F910F910895CF9317
:105AD000DF93009709F481C0FC0132971382128290
